{
  "_format": "hh-sol-artifact-1",
  "contractName": "Governance",
  "sourceName": "contracts/governance.sol",
  "abi": [
    {
      "inputs": [
        {
          "internalType": "address",
          "name": "_owner",
          "type": "address"
        }
      ],
      "stateMutability": "nonpayable",
      "type": "constructor"
    },
    {
      "anonymous": false,
      "inputs": [
        {
          "indexed": false,
          "internalType": "bool",
          "name": "success",
          "type": "bool"
        },
        {
          "indexed": false,
          "internalType": "string",
          "name": "message",
          "type": "string"
        }
      ],
      "name": "ExecuteResult",
      "type": "event"
    },
    {
      "inputs": [
        {
          "internalType": "address",
          "name": "_token",
          "type": "address"
        },
        {
          "internalType": "uint256",
          "name": "_level",
          "type": "uint256"
        },
        {
          "internalType": "uint256",
          "name": "_proposal",
          "type": "uint256"
        }
      ],
      "name": "changeLevel",
      "outputs": [
        {
          "internalType": "bool",
          "name": "",
          "type": "bool"
        }
      ],
      "stateMutability": "nonpayable",
      "type": "function"
    },
    {
      "inputs": [
        {
          "internalType": "address",
          "name": "proposal",
          "type": "address"
        }
      ],
      "name": "checkedToken",
      "outputs": [
        {
          "internalType": "uint256",
          "name": "",
          "type": "uint256"
        }
      ],
      "stateMutability": "view",
      "type": "function"
    },
    {
      "inputs": [
        {
          "internalType": "address",
          "name": "_differentToken",
          "type": "address"
        },
        {
          "internalType": "address",
          "name": "_AsdToken",
          "type": "address"
        },
        {
          "internalType": "uint256",
          "name": "_proposal",
          "type": "uint256"
        }
      ],
      "name": "createPool",
      "outputs": [
        {
          "internalType": "bool",
          "name": "",
          "type": "bool"
        }
      ],
      "stateMutability": "nonpayable",
      "type": "function"
    },
    {
      "inputs": [
        {
          "internalType": "uint256",
          "name": "_proposal",
          "type": "uint256"
        }
      ],
      "name": "getCallFunction",
      "outputs": [
        {
          "internalType": "bytes",
          "name": "",
          "type": "bytes"
        }
      ],
      "stateMutability": "view",
      "type": "function"
    },
    {
      "inputs": [
        {
          "internalType": "uint256",
          "name": "_proposal",
          "type": "uint256"
        }
      ],
      "name": "getHasVote",
      "outputs": [
        {
          "internalType": "bool",
          "name": "",
          "type": "bool"
        }
      ],
      "stateMutability": "view",
      "type": "function"
    },
    {
      "inputs": [
        {
          "internalType": "uint256",
          "name": "_idx",
          "type": "uint256"
        }
      ],
      "name": "getProposal",
      "outputs": [
        {
          "internalType": "address",
          "name": "",
          "type": "address"
        },
        {
          "internalType": "uint256",
          "name": "",
          "type": "uint256"
        },
        {
          "internalType": "uint256",
          "name": "",
          "type": "uint256"
        },
        {
          "internalType": "bytes",
          "name": "",
          "type": "bytes"
        },
        {
          "internalType": "bool",
          "name": "",
          "type": "bool"
        },
        {
          "internalType": "bool",
          "name": "",
          "type": "bool"
        },
        {
          "internalType": "uint256",
          "name": "",
          "type": "uint256"
        }
      ],
      "stateMutability": "view",
      "type": "function"
    },
    {
      "inputs": [],
      "name": "getTokenAddress",
      "outputs": [
        {
          "internalType": "address",
          "name": "",
          "type": "address"
        }
      ],
      "stateMutability": "view",
      "type": "function"
    },
    {
      "inputs": [
        {
          "internalType": "bytes",
          "name": "funcName",
          "type": "bytes"
        }
      ],
      "name": "isClose",
      "outputs": [
        {
          "internalType": "bool",
          "name": "",
          "type": "bool"
        }
      ],
      "stateMutability": "view",
      "type": "function"
    },
    {
      "inputs": [
        {
          "internalType": "bytes",
          "name": "funcName",
          "type": "bytes"
        }
      ],
      "name": "isStatus",
      "outputs": [
        {
          "internalType": "bool",
          "name": "",
          "type": "bool"
        }
      ],
      "stateMutability": "view",
      "type": "function"
    },
    {
      "inputs": [
        {
          "internalType": "uint256",
          "name": "",
          "type": "uint256"
        }
      ],
      "name": "participants",
      "outputs": [
        {
          "internalType": "address",
          "name": "",
          "type": "address"
        }
      ],
      "stateMutability": "view",
      "type": "function"
    },
    {
      "inputs": [
        {
          "internalType": "uint256",
          "name": "_proposal",
          "type": "uint256"
        }
      ],
      "name": "proposalExecute",
      "outputs": [],
      "stateMutability": "nonpayable",
      "type": "function"
    },
    {
      "inputs": [
        {
          "internalType": "address",
          "name": "_proposer",
          "type": "address"
        },
        {
          "internalType": "string",
          "name": "_callFunction",
          "type": "string"
        }
      ],
      "name": "propose",
      "outputs": [],
      "stateMutability": "nonpayable",
      "type": "function"
    },
    {
      "inputs": [
        {
          "internalType": "address",
          "name": "_factory",
          "type": "address"
        }
      ],
      "name": "setFactoryAddress",
      "outputs": [],
      "stateMutability": "nonpayable",
      "type": "function"
    },
    {
      "inputs": [
        {
          "internalType": "address",
          "name": "_timelock",
          "type": "address"
        }
      ],
      "name": "setTimelockAddress",
      "outputs": [],
      "stateMutability": "nonpayable",
      "type": "function"
    },
    {
      "inputs": [
        {
          "internalType": "address",
          "name": "_token",
          "type": "address"
        }
      ],
      "name": "setTokenAddress",
      "outputs": [],
      "stateMutability": "nonpayable",
      "type": "function"
    },
    {
      "inputs": [
        {
          "internalType": "uint256",
          "name": "_proposal",
          "type": "uint256"
        }
      ],
      "name": "timelockExecute",
      "outputs": [
        {
          "internalType": "bool",
          "name": "",
          "type": "bool"
        }
      ],
      "stateMutability": "nonpayable",
      "type": "function"
    },
    {
      "inputs": [
        {
          "internalType": "address",
          "name": "_participant",
          "type": "address"
        },
        {
          "internalType": "uint256",
          "name": "_proposal",
          "type": "uint256"
        },
        {
          "internalType": "bool",
          "name": "_agree",
          "type": "bool"
        }
      ],
      "name": "voting",
      "outputs": [],
      "stateMutability": "nonpayable",
      "type": "function"
    }
  ],
  "bytecode": "0x60806040523480156200001157600080fd5b5060405162002e7c38038062002e7c833981810160405281019062000037919062000129565b806000806101000a81548173ffffffffffffffffffffffffffffffffffffffff021916908373ffffffffffffffffffffffffffffffffffffffff16021790555030600360006101000a81548173ffffffffffffffffffffffffffffffffffffffff021916908373ffffffffffffffffffffffffffffffffffffffff160217905550506200015b565b600080fd5b600073ffffffffffffffffffffffffffffffffffffffff82169050919050565b6000620000f182620000c4565b9050919050565b6200010381620000e4565b81146200010f57600080fd5b50565b6000815190506200012381620000f8565b92915050565b600060208284031215620001425762000141620000bf565b5b6000620001528482850162000112565b91505092915050565b612d11806200016b6000396000f3fe608060405234801561001057600080fd5b506004361061010b5760003560e01c8063646f1a0c116100a2578063c7f758a811610071578063c7f758a814610302578063d5f4ef3714610338578063d6f0948c14610368578063e32d90b914610384578063fca79ca2146103a05761010b565b8063646f1a0c1461026a57806383c17c551461028657806392f415ec146102a2578063b3e1cf70146102d25761010b565b806335c1d349116100de57806335c1d349146101aa57806351810fb5146101da5780635ea7c6561461020a5780636091e2921461023a5761010b565b806310fe9ae81461011057806320a477b01461012e57806326a4e8d21461015e57806330f259ea1461017a575b600080fd5b6101186103bc565b6040516101259190611d8f565b60405180910390f35b61014860048036038101906101439190611df4565b6103e6565b6040516101559190611e3c565b60405180910390f35b61017860048036038101906101739190611e83565b61061a565b005b610194600480360381019061018f9190611ff6565b6106b6565b6040516101a19190611e3c565b60405180910390f35b6101c460048036038101906101bf9190611df4565b61076e565b6040516101d19190611d8f565b60405180910390f35b6101f460048036038101906101ef919061203f565b6107ad565b6040516102019190611e3c565b60405180910390f35b610224600480360381019061021f9190611ff6565b610aa3565b6040516102319190611e3c565b60405180910390f35b610254600480360381019061024f9190611df4565b610b5b565b604051610261919061211a565b60405180910390f35b610284600480360381019061027f9190611df4565b610c03565b005b6102a0600480360381019061029b9190611e83565b610f4c565b005b6102bc60048036038101906102b79190611df4565b610fe8565b6040516102c99190611e3c565b60405180910390f35b6102ec60048036038101906102e79190611e83565b611055565b6040516102f9919061214b565b60405180910390f35b61031c60048036038101906103179190611df4565b611109565b60405161032f9796959493929190612166565b60405180910390f35b610352600480360381019061034d91906121dc565b61122d565b60405161035f9190611e3c565b60405180910390f35b610382600480360381019061037d91906122d0565b611523565b005b61039e60048036038101906103999190612358565b6117af565b005b6103ba60048036038101906103b59190611e83565b611c0f565b005b6000600160009054906101000a900473ffffffffffffffffffffffffffffffffffffffff16905090565b60008060009054906101000a900473ffffffffffffffffffffffffffffffffffffffff1673ffffffffffffffffffffffffffffffffffffffff163373ffffffffffffffffffffffffffffffffffffffff1614610477576040517f08c379a000000000000000000000000000000000000000000000000000000000815260040161046e90612408565b60405180910390fd5b6802c3c465ca58ec00006007600084815260200190815260200160002060050154106105ad5760016007600084815260200190815260200160002060040160016101000a81548160ff021916908315150217905550600460009054906101000a900473ffffffffffffffffffffffffffffffffffffffff1673ffffffffffffffffffffffffffffffffffffffff16632c4076b660076000858152602001908152602001600020600301426040518363ffffffff1660e01b815260040161053e92919061251e565b600060405180830381600087803b15801561055857600080fd5b505af115801561056c573d6000803e3d6000fd5b505050507fe8c2651797e6d7c2a1514bdecc5c3cb9b2d783d3f858277b06b64568460c8a0e60016040516105a0919061259a565b60405180910390a1610615565b60016007600084815260200190815260200160002060040160006101000a81548160ff0219169083151502179055507fe8c2651797e6d7c2a1514bdecc5c3cb9b2d783d3f858277b06b64568460c8a0e600060405161060c9190612614565b60405180910390a15b919050565b3373ffffffffffffffffffffffffffffffffffffffff1660008054906101000a900473ffffffffffffffffffffffffffffffffffffffff1673ffffffffffffffffffffffffffffffffffffffff161461067257600080fd5b80600160006101000a81548173ffffffffffffffffffffffffffffffffffffffff021916908373ffffffffffffffffffffffffffffffffffffffff16021790555050565b6000600460009054906101000a900473ffffffffffffffffffffffffffffffffffffffff1673ffffffffffffffffffffffffffffffffffffffff1663faa9e569836040518263ffffffff1660e01b8152600401610713919061211a565b60806040518083038186803b15801561072b57600080fd5b505afa15801561073f573d6000803e3d6000fd5b505050506040513d601f19601f8201168201806040525081019061076391906126e9565b600001519050919050565b6006818154811061077e57600080fd5b906000526020600020016000915054906101000a900473ffffffffffffffffffffffffffffffffffffffff1681565b60006108566007600084815260200190815260200160002060030180546107d390612457565b80601f01602080910402602001604051908101604052809291908181526020018280546107ff90612457565b801561084c5780601f106108215761010080835404028352916020019161084c565b820191906000526020600020905b81548152906001019060200180831161082f57829003601f168201915b50505050506106b6565b61085f57600080fd5b61090660076000848152602001908152602001600020600301805461088390612457565b80601f01602080910402602001604051908101604052809291908181526020018280546108af90612457565b80156108fc5780601f106108d1576101008083540402835291602001916108fc565b820191906000526020600020905b8154815290600101906020018083116108df57829003601f168201915b5050505050610aa3565b15610946576040517f08c379a000000000000000000000000000000000000000000000000000000000815260040161093d90612762565b60405180910390fd5b600560009054906101000a900473ffffffffffffffffffffffffffffffffffffffff1673ffffffffffffffffffffffffffffffffffffffff1663e343361585856040518363ffffffff1660e01b81526004016109a3929190612782565b600060405180830381600087803b1580156109bd57600080fd5b505af11580156109d1573d6000803e3d6000fd5b50505050600460009054906101000a900473ffffffffffffffffffffffffffffffffffffffff1673ffffffffffffffffffffffffffffffffffffffff1663589dad3e600760008581526020019081526020016000206003016040518263ffffffff1660e01b8152600401610a4591906127ab565b602060405180830381600087803b158015610a5f57600080fd5b505af1158015610a73573d6000803e3d6000fd5b505050506040513d601f19601f82011682018060405250810190610a9791906127cd565b50600190509392505050565b6000600460009054906101000a900473ffffffffffffffffffffffffffffffffffffffff1673ffffffffffffffffffffffffffffffffffffffff1663faa9e569836040518263ffffffff1660e01b8152600401610b00919061211a565b60806040518083038186803b158015610b1857600080fd5b505afa158015610b2c573d6000803e3d6000fd5b505050506040513d601f19601f82011682018060405250810190610b5091906126e9565b606001519050919050565b6060600760008381526020019081526020016000206003018054610b7e90612457565b80601f0160208091040260200160405190810160405280929190818152602001828054610baa90612457565b8015610bf75780601f10610bcc57610100808354040283529160200191610bf7565b820191906000526020600020905b815481529060010190602001808311610bda57829003601f168201915b50505050509050919050565b60008054906101000a900473ffffffffffffffffffffffffffffffffffffffff1673ffffffffffffffffffffffffffffffffffffffff163373ffffffffffffffffffffffffffffffffffffffff1614610c91576040517f08c379a0000000000000000000000000000000000000000000000000000000008152600401610c8890612408565b60405180910390fd5b600015156007600083815260200190815260200160002060040160019054906101000a900460ff1615151415610cfa577fe8c2651797e6d7c2a1514bdecc5c3cb9b2d783d3f858277b06b64568460c8a0e6000604051610cf1919061286c565b60405180910390a15b60001515600460009054906101000a900473ffffffffffffffffffffffffffffffffffffffff1673ffffffffffffffffffffffffffffffffffffffff166392e876cd60076000858152602001908152602001600020600301426040518363ffffffff1660e01b8152600401610d7092919061251e565b602060405180830381600087803b158015610d8a57600080fd5b505af1158015610d9e573d6000803e3d6000fd5b505050506040513d601f19601f82011682018060405250810190610dc291906127cd565b15151415610e03577fe8c2651797e6d7c2a1514bdecc5c3cb9b2d783d3f858277b06b64568460c8a0e6000604051610dfa919061290c565b60405180910390a15b60001515600460009054906101000a900473ffffffffffffffffffffffffffffffffffffffff1673ffffffffffffffffffffffffffffffffffffffff1663faa9e569600760008581526020019081526020016000206003016040518263ffffffff1660e01b8152600401610e7791906127ab565b60806040518083038186803b158015610e8f57600080fd5b505afa158015610ea3573d6000803e3d6000fd5b505050506040513d601f19601f82011682018060405250810190610ec791906126e9565b6000015115151415610f10577fe8c2651797e6d7c2a1514bdecc5c3cb9b2d783d3f858277b06b64568460c8a0e6000604051610f03919061290c565b60405180910390a1610f49565b7fe8c2651797e6d7c2a1514bdecc5c3cb9b2d783d3f858277b06b64568460c8a0e6001604051610f409190612986565b60405180910390a15b50565b3373ffffffffffffffffffffffffffffffffffffffff1660008054906101000a900473ffffffffffffffffffffffffffffffffffffffff1673ffffffffffffffffffffffffffffffffffffffff1614610fa457600080fd5b80600560006101000a81548173ffffffffffffffffffffffffffffffffffffffff021916908373ffffffffffffffffffffffffffffffffffffffff16021790555050565b60006007600083815260200190815260200160002060060160003373ffffffffffffffffffffffffffffffffffffffff1673ffffffffffffffffffffffffffffffffffffffff16815260200190815260200160002060000160009054906101000a900460ff169050919050565b6000600160009054906101000a900473ffffffffffffffffffffffffffffffffffffffff1673ffffffffffffffffffffffffffffffffffffffff166370a08231836040518263ffffffff1660e01b81526004016110b29190611d8f565b60206040518083038186803b1580156110ca57600080fd5b505afa1580156110de573d6000803e3d6000fd5b505050506040513d601f19601f8201168201806040525081019061110291906129b4565b9050919050565b60008060006060600080600080600760008a815260200190815260200160002090508060000160009054906101000a900473ffffffffffffffffffffffffffffffffffffffff1681600101548260020154836003018460040160009054906101000a900460ff168560040160019054906101000a900460ff16866005015483805461119390612457565b80601f01602080910402602001604051908101604052809291908181526020018280546111bf90612457565b801561120c5780601f106111e15761010080835404028352916020019161120c565b820191906000526020600020905b8154815290600101906020018083116111ef57829003601f168201915b50505050509350975097509750975097509750975050919395979092949650565b60006112d660076000848152602001908152602001600020600301805461125390612457565b80601f016020809104026020016040519081016040528092919081815260200182805461127f90612457565b80156112cc5780601f106112a1576101008083540402835291602001916112cc565b820191906000526020600020905b8154815290600101906020018083116112af57829003601f168201915b50505050506106b6565b6112df57600080fd5b61138660076000848152602001908152602001600020600301805461130390612457565b80601f016020809104026020016040519081016040528092919081815260200182805461132f90612457565b801561137c5780601f106113515761010080835404028352916020019161137c565b820191906000526020600020905b81548152906001019060200180831161135f57829003601f168201915b5050505050610aa3565b156113c6576040517f08c379a00000000000000000000000000000000000000000000000000000000081526004016113bd90612762565b60405180910390fd5b600560009054906101000a900473ffffffffffffffffffffffffffffffffffffffff1673ffffffffffffffffffffffffffffffffffffffff16633f2699d085856040518363ffffffff1660e01b81526004016114239291906129e1565b600060405180830381600087803b15801561143d57600080fd5b505af1158015611451573d6000803e3d6000fd5b50505050600460009054906101000a900473ffffffffffffffffffffffffffffffffffffffff1673ffffffffffffffffffffffffffffffffffffffff1663589dad3e600760008581526020019081526020016000206003016040518263ffffffff1660e01b81526004016114c591906127ab565b602060405180830381600087803b1580156114df57600080fd5b505af11580156114f3573d6000803e3d6000fd5b505050506040513d601f19601f8201168201806040525081019061151791906127cd565b50600190509392505050565b6000600160009054906101000a900473ffffffffffffffffffffffffffffffffffffffff1673ffffffffffffffffffffffffffffffffffffffff166370a08231846040518263ffffffff1660e01b81526004016115809190611d8f565b60206040518083038186803b15801561159857600080fd5b505afa1580156115ac573d6000803e3d6000fd5b505050506040513d601f19601f820116820180604052508101906115d091906129b4565b11611610576040517f08c379a000000000000000000000000000000000000000000000000000000000815260040161160790612a7c565b60405180910390fd5b60004390506000614380436116259190612acb565b9050600060076000600160025461163c9190612acb565b81526020019081526020016000209050848160000160006101000a81548173ffffffffffffffffffffffffffffffffffffffff021916908373ffffffffffffffffffffffffffffffffffffffff160217905550828160010181905550818160020181905550838160030190805190602001906116b9929190611cab565b5060008160040160006101000a81548160ff02191690831515021790555060008160040160016101000a81548160ff021916908315150217905550600081600501819055506001600260008282546117119190612acb565b92505081905550600160009054906101000a900473ffffffffffffffffffffffffffffffffffffffff1673ffffffffffffffffffffffffffffffffffffffff16636161eb188660016040518363ffffffff1660e01b8152600401611776929190612b66565b600060405180830381600087803b15801561179057600080fd5b505af11580156117a4573d6000803e3d6000fd5b505050505050505050565b6000600160009054906101000a900473ffffffffffffffffffffffffffffffffffffffff1673ffffffffffffffffffffffffffffffffffffffff166370a08231856040518263ffffffff1660e01b815260040161180c9190611d8f565b60206040518083038186803b15801561182457600080fd5b505afa158015611838573d6000803e3d6000fd5b505050506040513d601f19601f8201168201806040525081019061185c91906129b4565b1161189c576040517f08c379a000000000000000000000000000000000000000000000000000000000815260040161189390612a7c565b60405180910390fd5b600015156007600084815260200190815260200160002060060160008573ffffffffffffffffffffffffffffffffffffffff1673ffffffffffffffffffffffffffffffffffffffff16815260200190815260200160002060000160009054906101000a900460ff16151514611946576040517f08c379a000000000000000000000000000000000000000000000000000000000815260040161193d90612c01565b60405180910390fd5b60405180604001604052806001151581526020018215158152506007600084815260200190815260200160002060060160008573ffffffffffffffffffffffffffffffffffffffff1673ffffffffffffffffffffffffffffffffffffffff16815260200190815260200160002060008201518160000160006101000a81548160ff02191690831515021790555060208201518160000160016101000a81548160ff02191690831515021790555090505060086000838152602001908152602001600020839080600181540180825580915050600190039060005260206000200160009091909190916101000a81548173ffffffffffffffffffffffffffffffffffffffff021916908373ffffffffffffffffffffffffffffffffffffffff160217905550600160009054906101000a900473ffffffffffffffffffffffffffffffffffffffff1673ffffffffffffffffffffffffffffffffffffffff166318160ddd6040518163ffffffff1660e01b815260040160206040518083038186803b158015611ad257600080fd5b505afa158015611ae6573d6000803e3d6000fd5b505050506040513d601f19601f82011682018060405250810190611b0a91906129b4565b6064670de0b6b3a7640000600160009054906101000a900473ffffffffffffffffffffffffffffffffffffffff1673ffffffffffffffffffffffffffffffffffffffff166370a08231876040518263ffffffff1660e01b8152600401611b709190611d8f565b60206040518083038186803b158015611b8857600080fd5b505afa158015611b9c573d6000803e3d6000fd5b505050506040513d601f19601f82011682018060405250810190611bc091906129b4565b611bca9190612c21565b611bd49190612c21565b611bde9190612caa565b600760008481526020019081526020016000206005016000828254611c039190612acb565b92505081905550505050565b3373ffffffffffffffffffffffffffffffffffffffff1660008054906101000a900473ffffffffffffffffffffffffffffffffffffffff1673ffffffffffffffffffffffffffffffffffffffff1614611c6757600080fd5b80600460006101000a81548173ffffffffffffffffffffffffffffffffffffffff021916908373ffffffffffffffffffffffffffffffffffffffff16021790555050565b828054611cb790612457565b90600052602060002090601f016020900481019282611cd95760008555611d20565b82601f10611cf257805160ff1916838001178555611d20565b82800160010185558215611d20579182015b82811115611d1f578251825591602001919060010190611d04565b5b509050611d2d9190611d31565b5090565b5b80821115611d4a576000816000905550600101611d32565b5090565b600073ffffffffffffffffffffffffffffffffffffffff82169050919050565b6000611d7982611d4e565b9050919050565b611d8981611d6e565b82525050565b6000602082019050611da46000830184611d80565b92915050565b6000604051905090565b600080fd5b600080fd5b6000819050919050565b611dd181611dbe565b8114611ddc57600080fd5b50565b600081359050611dee81611dc8565b92915050565b600060208284031215611e0a57611e09611db4565b5b6000611e1884828501611ddf565b91505092915050565b60008115159050919050565b611e3681611e21565b82525050565b6000602082019050611e516000830184611e2d565b92915050565b611e6081611d6e565b8114611e6b57600080fd5b50565b600081359050611e7d81611e57565b92915050565b600060208284031215611e9957611e98611db4565b5b6000611ea784828501611e6e565b91505092915050565b600080fd5b600080fd5b6000601f19601f8301169050919050565b7f4e487b7100000000000000000000000000000000000000000000000000000000600052604160045260246000fd5b611f0382611eba565b810181811067ffffffffffffffff82111715611f2257611f21611ecb565b5b80604052505050565b6000611f35611daa565b9050611f418282611efa565b919050565b600067ffffffffffffffff821115611f6157611f60611ecb565b5b611f6a82611eba565b9050602081019050919050565b82818337600083830152505050565b6000611f99611f9484611f46565b611f2b565b905082815260208101848484011115611fb557611fb4611eb5565b5b611fc0848285611f77565b509392505050565b600082601f830112611fdd57611fdc611eb0565b5b8135611fed848260208601611f86565b91505092915050565b60006020828403121561200c5761200b611db4565b5b600082013567ffffffffffffffff81111561202a57612029611db9565b5b61203684828501611fc8565b91505092915050565b60008060006060848603121561205857612057611db4565b5b600061206686828701611e6e565b935050602061207786828701611e6e565b925050604061208886828701611ddf565b9150509250925092565b600081519050919050565b600082825260208201905092915050565b60005b838110156120cc5780820151818401526020810190506120b1565b838111156120db576000848401525b50505050565b60006120ec82612092565b6120f6818561209d565b93506121068185602086016120ae565b61210f81611eba565b840191505092915050565b6000602082019050818103600083015261213481846120e1565b905092915050565b61214581611dbe565b82525050565b6000602082019050612160600083018461213c565b92915050565b600060e08201905061217b600083018a611d80565b612188602083018961213c565b612195604083018861213c565b81810360608301526121a781876120e1565b90506121b66080830186611e2d565b6121c360a0830185611e2d565b6121d060c083018461213c565b98975050505050505050565b6000806000606084860312156121f5576121f4611db4565b5b600061220386828701611e6e565b935050602061221486828701611ddf565b925050604061222586828701611ddf565b9150509250925092565b600067ffffffffffffffff82111561224a57612249611ecb565b5b61225382611eba565b9050602081019050919050565b600061227361226e8461222f565b611f2b565b90508281526020810184848401111561228f5761228e611eb5565b5b61229a848285611f77565b509392505050565b600082601f8301126122b7576122b6611eb0565b5b81356122c7848260208601612260565b91505092915050565b600080604083850312156122e7576122e6611db4565b5b60006122f585828601611e6e565b925050602083013567ffffffffffffffff81111561231657612315611db9565b5b612322858286016122a2565b9150509250929050565b61233581611e21565b811461234057600080fd5b50565b6000813590506123528161232c565b92915050565b60008060006060848603121561237157612370611db4565b5b600061237f86828701611e6e565b935050602061239086828701611ddf565b92505060406123a186828701612343565b9150509250925092565b600082825260208201905092915050565b7f476f7665726e616e6365203a206f6e6c79206f776e6572000000000000000000600082015250565b60006123f26017836123ab565b91506123fd826123bc565b602082019050919050565b60006020820190508181036000830152612421816123e5565b9050919050565b7f4e487b7100000000000000000000000000000000000000000000000000000000600052602260045260246000fd5b6000600282049050600182168061246f57607f821691505b6020821081141561248357612482612428565b5b50919050565b60008190508160005260206000209050919050565b600081546124ab81612457565b6124b5818661209d565b945060018216600081146124d057600181146124e257612515565b60ff1983168652602086019350612515565b6124eb85612489565b60005b8381101561250d578154818901526001820191506020810190506124ee565b808801955050505b50505092915050565b60006040820190508181036000830152612538818561249e565b9050612547602083018461213c565b9392505050565b7f676f20746f2074696d656c6f636b000000000000000000000000000000000000600082015250565b6000612584600e836123ab565b915061258f8261254e565b602082019050919050565b60006040820190506125af6000830184611e2d565b81810360208301526125c081612577565b905092915050565b7f646f206e6f740000000000000000000000000000000000000000000000000000600082015250565b60006125fe6006836123ab565b9150612609826125c8565b602082019050919050565b60006040820190506126296000830184611e2d565b818103602083015261263a816125f1565b905092915050565b600080fd5b6000815190506126568161232c565b92915050565b60008151905061266b81611dc8565b92915050565b60006080828403121561268757612686612642565b5b6126916080611f2b565b905060006126a184828501612647565b60008301525060206126b584828501612647565b60208301525060406126c98482850161265c565b60408301525060606126dd84828501612647565b60608301525092915050565b6000608082840312156126ff576126fe611db4565b5b600061270d84828501612671565b91505092915050565b7f497320436c6f7365640000000000000000000000000000000000000000000000600082015250565b600061274c6009836123ab565b915061275782612716565b602082019050919050565b6000602082019050818103600083015261277b8161273f565b9050919050565b60006040820190506127976000830185611d80565b6127a46020830184611d80565b9392505050565b600060208201905081810360008301526127c5818461249e565b905092915050565b6000602082840312156127e3576127e2611db4565b5b60006127f184828501612647565b91505092915050565b7f476f7665726e616e6365203a2049742773206120766f7465207468617420646960008201527f646e277420706173732e00000000000000000000000000000000000000000000602082015250565b6000612856602a836123ab565b9150612861826127fa565b604082019050919050565b60006040820190506128816000830184611e2d565b818103602083015261289281612849565b905092915050565b7f476f7665726e616e6365203a2054696d656c6f636b2069732072756e6e696e6760008201527f2e00000000000000000000000000000000000000000000000000000000000000602082015250565b60006128f66021836123ab565b91506129018261289a565b604082019050919050565b60006040820190506129216000830184611e2d565b8181036020830152612932816128e9565b905092915050565b7f7375636365737300000000000000000000000000000000000000000000000000600082015250565b60006129706007836123ab565b915061297b8261293a565b602082019050919050565b600060408201905061299b6000830184611e2d565b81810360208301526129ac81612963565b905092915050565b6000602082840312156129ca576129c9611db4565b5b60006129d88482850161265c565b91505092915050565b60006040820190506129f66000830185611d80565b612a03602083018461213c565b9392505050565b7f476f7665726e616e6365203a20446f206e6f742068617665206120764153442060008201527f746f6b656e2e0000000000000000000000000000000000000000000000000000602082015250565b6000612a666026836123ab565b9150612a7182612a0a565b604082019050919050565b60006020820190508181036000830152612a9581612a59565b9050919050565b7f4e487b7100000000000000000000000000000000000000000000000000000000600052601160045260246000fd5b6000612ad682611dbe565b9150612ae183611dbe565b9250827fffffffffffffffffffffffffffffffffffffffffffffffffffffffffffffffff03821115612b1657612b15612a9c565b5b828201905092915050565b6000819050919050565b6000819050919050565b6000612b50612b4b612b4684612b21565b612b2b565b611dbe565b9050919050565b612b6081612b35565b82525050565b6000604082019050612b7b6000830185611d80565b612b886020830184612b57565b9392505050565b7f476f7665726e616e6365203a20497420697320612070726f706f73616c20746860008201527f61742068617320616c7265616479206265656e20766f746564206f6e2e000000602082015250565b6000612beb603d836123ab565b9150612bf682612b8f565b604082019050919050565b60006020820190508181036000830152612c1a81612bde565b9050919050565b6000612c2c82611dbe565b9150612c3783611dbe565b9250817fffffffffffffffffffffffffffffffffffffffffffffffffffffffffffffffff0483118215151615612c7057612c6f612a9c565b5b828202905092915050565b7f4e487b7100000000000000000000000000000000000000000000000000000000600052601260045260246000fd5b6000612cb582611dbe565b9150612cc083611dbe565b925082612cd057612ccf612c7b565b5b82820490509291505056fea264697066735822122041adbf72a5f9869e026723d6f209c4f55ebe8f9000aba241e961d4788d311a0564736f6c63430008090033",
  "linkReferences": {},
  "deployedLinkReferences": {}
}