{
  "_format": "hh-sol-artifact-1",
  "contractName": "Governance",
  "sourceName": "contracts/governance.sol",
  "abi": [
    {
      "inputs": [
        {
          "internalType": "address",
          "name": "_owner",
          "type": "address"
        }
      ],
      "stateMutability": "nonpayable",
      "type": "constructor"
    },
    {
      "inputs": [
        {
          "internalType": "address",
          "name": "_token",
          "type": "address"
        },
        {
          "internalType": "uint256",
          "name": "_level",
          "type": "uint256"
        },
        {
          "internalType": "uint256",
          "name": "_proposal",
          "type": "uint256"
        }
      ],
      "name": "changeLevel",
      "outputs": [
        {
          "internalType": "bool",
          "name": "",
          "type": "bool"
        }
      ],
      "stateMutability": "nonpayable",
      "type": "function"
    },
    {
      "inputs": [
        {
          "internalType": "address",
          "name": "_differentToken",
          "type": "address"
        },
        {
          "internalType": "address",
          "name": "_AsdToken",
          "type": "address"
        },
        {
          "internalType": "uint256",
          "name": "_proposal",
          "type": "uint256"
        }
      ],
      "name": "createPool",
      "outputs": [
        {
          "internalType": "bool",
          "name": "",
          "type": "bool"
        }
      ],
      "stateMutability": "nonpayable",
      "type": "function"
    },
    {
      "inputs": [
        {
          "internalType": "uint256",
          "name": "_proposal",
          "type": "uint256"
        }
      ],
      "name": "getCallData",
      "outputs": [
        {
          "internalType": "string",
          "name": "",
          "type": "string"
        }
      ],
      "stateMutability": "view",
      "type": "function"
    },
    {
      "inputs": [
        {
          "internalType": "uint256",
          "name": "_proposal",
          "type": "uint256"
        }
      ],
      "name": "getCallFunction",
      "outputs": [
        {
          "internalType": "bytes",
          "name": "",
          "type": "bytes"
        }
      ],
      "stateMutability": "view",
      "type": "function"
    },
    {
      "inputs": [
        {
          "internalType": "uint256",
          "name": "_idx",
          "type": "uint256"
        }
      ],
      "name": "getProposal",
      "outputs": [
        {
          "internalType": "address",
          "name": "",
          "type": "address"
        },
        {
          "internalType": "uint256",
          "name": "",
          "type": "uint256"
        },
        {
          "internalType": "uint256",
          "name": "",
          "type": "uint256"
        },
        {
          "internalType": "string",
          "name": "",
          "type": "string"
        },
        {
          "internalType": "bytes",
          "name": "",
          "type": "bytes"
        },
        {
          "internalType": "bool",
          "name": "",
          "type": "bool"
        },
        {
          "internalType": "bool",
          "name": "",
          "type": "bool"
        },
        {
          "internalType": "uint256",
          "name": "",
          "type": "uint256"
        }
      ],
      "stateMutability": "view",
      "type": "function"
    },
    {
      "inputs": [
        {
          "internalType": "bytes",
          "name": "funcName",
          "type": "bytes"
        }
      ],
      "name": "isClose",
      "outputs": [
        {
          "internalType": "bool",
          "name": "",
          "type": "bool"
        }
      ],
      "stateMutability": "view",
      "type": "function"
    },
    {
      "inputs": [
        {
          "internalType": "bytes",
          "name": "funcName",
          "type": "bytes"
        }
      ],
      "name": "isStatus",
      "outputs": [
        {
          "internalType": "bool",
          "name": "",
          "type": "bool"
        }
      ],
      "stateMutability": "view",
      "type": "function"
    },
    {
      "inputs": [
        {
          "internalType": "uint256",
          "name": "",
          "type": "uint256"
        }
      ],
      "name": "participants",
      "outputs": [
        {
          "internalType": "address",
          "name": "",
          "type": "address"
        }
      ],
      "stateMutability": "view",
      "type": "function"
    },
    {
      "inputs": [
        {
          "internalType": "uint256",
          "name": "_proposal",
          "type": "uint256"
        },
        {
          "internalType": "uint256",
          "name": "etc",
          "type": "uint256"
        }
      ],
      "name": "proposalExecute",
      "outputs": [
        {
          "internalType": "bool",
          "name": "",
          "type": "bool"
        }
      ],
      "stateMutability": "nonpayable",
      "type": "function"
    },
    {
      "inputs": [
        {
          "internalType": "address",
          "name": "_proposer",
          "type": "address"
        },
        {
          "internalType": "string",
          "name": "_callData",
          "type": "string"
        },
        {
          "internalType": "string",
          "name": "_callFunction",
          "type": "string"
        }
      ],
      "name": "propose",
      "outputs": [],
      "stateMutability": "nonpayable",
      "type": "function"
    },
    {
      "inputs": [
        {
          "internalType": "address",
          "name": "_factory",
          "type": "address"
        }
      ],
      "name": "setFactoryAddress",
      "outputs": [],
      "stateMutability": "nonpayable",
      "type": "function"
    },
    {
      "inputs": [
        {
          "internalType": "address",
          "name": "_timelock",
          "type": "address"
        }
      ],
      "name": "setTimelockAddress",
      "outputs": [],
      "stateMutability": "nonpayable",
      "type": "function"
    },
    {
      "inputs": [
        {
          "internalType": "address",
          "name": "_token",
          "type": "address"
        }
      ],
      "name": "setTokenAddress",
      "outputs": [],
      "stateMutability": "nonpayable",
      "type": "function"
    },
    {
      "inputs": [
        {
          "internalType": "uint256",
          "name": "_proposal",
          "type": "uint256"
        }
      ],
      "name": "timelockExecute",
      "outputs": [
        {
          "internalType": "bool",
          "name": "",
          "type": "bool"
        }
      ],
      "stateMutability": "nonpayable",
      "type": "function"
    },
    {
      "inputs": [
        {
          "internalType": "address",
          "name": "_participant",
          "type": "address"
        },
        {
          "internalType": "uint256",
          "name": "_proposal",
          "type": "uint256"
        },
        {
          "internalType": "bool",
          "name": "_agree",
          "type": "bool"
        }
      ],
      "name": "voting",
      "outputs": [],
      "stateMutability": "nonpayable",
      "type": "function"
    }
  ],
  "bytecode": "0x60806040523480156200001157600080fd5b5060405162002ddd38038062002ddd833981810160405281019062000037919062000129565b806000806101000a81548173ffffffffffffffffffffffffffffffffffffffff021916908373ffffffffffffffffffffffffffffffffffffffff16021790555030600360006101000a81548173ffffffffffffffffffffffffffffffffffffffff021916908373ffffffffffffffffffffffffffffffffffffffff160217905550506200015b565b600080fd5b600073ffffffffffffffffffffffffffffffffffffffff82169050919050565b6000620000f182620000c4565b9050919050565b6200010381620000e4565b81146200010f57600080fd5b50565b6000815190506200012381620000f8565b92915050565b600060208284031215620001425762000141620000bf565b5b6000620001528482850162000112565b91505092915050565b612c72806200016b6000396000f3fe608060405234801561001057600080fd5b50600436106100f55760003560e01c80635ea7c65611610097578063c7f758a811610066578063c7f758a8146102ce578063d5f4ef3714610305578063e32d90b914610335578063fca79ca214610351576100f5565b80635ea7c656146102225780636091e2921461025257806383c17c5514610282578063904f289c1461029e576100f5565b806335c1d349116100d357806335c1d349146101765780634a28067f146101a657806351810fb5146101d65780635350ada814610206576100f5565b806320a477b0146100fa57806326a4e8d21461012a57806330f259ea14610146575b600080fd5b610114600480360381019061010f9190611db3565b61036d565b6040516101219190611dfb565b60405180910390f35b610144600480360381019061013f9190611e74565b610531565b005b610160600480360381019061015b9190611fe7565b6105cd565b60405161016d9190611dfb565b60405180910390f35b610190600480360381019061018b9190611db3565b610685565b60405161019d919061203f565b60405180910390f35b6101c060048036038101906101bb919061205a565b6106c4565b6040516101cd9190611dfb565b60405180910390f35b6101f060048036038101906101eb919061209a565b610a57565b6040516101fd9190611dfb565b60405180910390f35b610220600480360381019061021b919061218e565b610d4d565b005b61023c60048036038101906102379190611fe7565b610ff3565b6040516102499190611dfb565b60405180910390f35b61026c60048036038101906102679190611db3565b6110ab565b60405161027991906122a1565b60405180910390f35b61029c60048036038101906102979190611e74565b611153565b005b6102b860048036038101906102b39190611db3565b6111ef565b6040516102c59190612318565b60405180910390f35b6102e860048036038101906102e39190611db3565b611297565b6040516102fc989796959493929190612349565b60405180910390f35b61031f600480360381019061031a91906123d5565b61144e565b60405161032c9190611dfb565b60405180910390f35b61034f600480360381019061034a9190612454565b611744565b005b61036b60048036038101906103669190611e74565b611ba4565b005b60008060009054906101000a900473ffffffffffffffffffffffffffffffffffffffff1673ffffffffffffffffffffffffffffffffffffffff163373ffffffffffffffffffffffffffffffffffffffff16146103fe576040517f08c379a00000000000000000000000000000000000000000000000000000000081526004016103f5906124f3565b60405180910390fd5b60336007600084815260200190815260200160002060060154106104f85760016007600084815260200190815260200160002060050160016101000a81548160ff021916908315150217905550600460009054906101000a900473ffffffffffffffffffffffffffffffffffffffff1673ffffffffffffffffffffffffffffffffffffffff16632c4076b660076000858152602001908152602001600020600401426040518363ffffffff1660e01b81526004016104bd929190612609565b600060405180830381600087803b1580156104d757600080fd5b505af11580156104eb573d6000803e3d6000fd5b505050506001905061052c565b60016007600084815260200190815260200160002060050160006101000a81548160ff021916908315150217905550600090505b919050565b3373ffffffffffffffffffffffffffffffffffffffff1660008054906101000a900473ffffffffffffffffffffffffffffffffffffffff1673ffffffffffffffffffffffffffffffffffffffff161461058957600080fd5b80600160006101000a81548173ffffffffffffffffffffffffffffffffffffffff021916908373ffffffffffffffffffffffffffffffffffffffff16021790555050565b6000600460009054906101000a900473ffffffffffffffffffffffffffffffffffffffff1673ffffffffffffffffffffffffffffffffffffffff1663faa9e569836040518263ffffffff1660e01b815260040161062a91906122a1565b60806040518083038186803b15801561064257600080fd5b505afa158015610656573d6000803e3d6000fd5b505050506040513d601f19601f8201168201806040525081019061067a91906126e0565b600001519050919050565b6006818154811061069557600080fd5b906000526020600020016000915054906101000a900473ffffffffffffffffffffffffffffffffffffffff1681565b60008060009054906101000a900473ffffffffffffffffffffffffffffffffffffffff1673ffffffffffffffffffffffffffffffffffffffff163373ffffffffffffffffffffffffffffffffffffffff1614610755576040517f08c379a000000000000000000000000000000000000000000000000000000000815260040161074c906124f3565b60405180910390fd5b6007600084815260200190815260200160002060050160019054906101000a900460ff166107b8576040517f08c379a00000000000000000000000000000000000000000000000000000000081526004016107af9061277f565b60405180910390fd5b600460009054906101000a900473ffffffffffffffffffffffffffffffffffffffff1673ffffffffffffffffffffffffffffffffffffffff166392e876cd60076000868152602001908152602001600020600401426040518363ffffffff1660e01b815260040161082a929190612609565b602060405180830381600087803b15801561084457600080fd5b505af1158015610858573d6000803e3d6000fd5b505050506040513d601f19601f8201168201806040525081019061087c919061279f565b6108bb576040517f08c379a00000000000000000000000000000000000000000000000000000000081526004016108b29061283e565b60405180910390fd5b600460009054906101000a900473ffffffffffffffffffffffffffffffffffffffff1673ffffffffffffffffffffffffffffffffffffffff1663faa9e569600760008681526020019081526020016000206004016040518263ffffffff1660e01b815260040161092b919061285e565b60806040518083038186803b15801561094357600080fd5b505afa158015610957573d6000803e3d6000fd5b505050506040513d601f19601f8201168201806040525081019061097b91906126e0565b6000015161098857600080fd5b600460009054906101000a900473ffffffffffffffffffffffffffffffffffffffff1673ffffffffffffffffffffffffffffffffffffffff166392e876cd60076000868152602001908152602001600020600401846040518363ffffffff1660e01b81526004016109fa929190612609565b602060405180830381600087803b158015610a1457600080fd5b505af1158015610a28573d6000803e3d6000fd5b505050506040513d601f19601f82011682018060405250810190610a4c919061279f565b506001905092915050565b6000610b00600760008481526020019081526020016000206004018054610a7d90612542565b80601f0160208091040260200160405190810160405280929190818152602001828054610aa990612542565b8015610af65780601f10610acb57610100808354040283529160200191610af6565b820191906000526020600020905b815481529060010190602001808311610ad957829003601f168201915b50505050506105cd565b610b0957600080fd5b610bb0600760008481526020019081526020016000206004018054610b2d90612542565b80601f0160208091040260200160405190810160405280929190818152602001828054610b5990612542565b8015610ba65780601f10610b7b57610100808354040283529160200191610ba6565b820191906000526020600020905b815481529060010190602001808311610b8957829003601f168201915b5050505050610ff3565b15610bf0576040517f08c379a0000000000000000000000000000000000000000000000000000000008152600401610be7906128cc565b60405180910390fd5b600560009054906101000a900473ffffffffffffffffffffffffffffffffffffffff1673ffffffffffffffffffffffffffffffffffffffff1663e343361585856040518363ffffffff1660e01b8152600401610c4d9291906128ec565b600060405180830381600087803b158015610c6757600080fd5b505af1158015610c7b573d6000803e3d6000fd5b50505050600460009054906101000a900473ffffffffffffffffffffffffffffffffffffffff1673ffffffffffffffffffffffffffffffffffffffff1663589dad3e600760008581526020019081526020016000206004016040518263ffffffff1660e01b8152600401610cef919061285e565b602060405180830381600087803b158015610d0957600080fd5b505af1158015610d1d573d6000803e3d6000fd5b505050506040513d601f19601f82011682018060405250810190610d41919061279f565b50600190509392505050565b6000600160009054906101000a900473ffffffffffffffffffffffffffffffffffffffff1673ffffffffffffffffffffffffffffffffffffffff166370a08231856040518263ffffffff1660e01b8152600401610daa919061203f565b60206040518083038186803b158015610dc257600080fd5b505afa158015610dd6573d6000803e3d6000fd5b505050506040513d601f19601f82011682018060405250810190610dfa9190612915565b11610e3a576040517f08c379a0000000000000000000000000000000000000000000000000000000008152600401610e31906129b4565b60405180910390fd5b6000439050600061438043610e4f9190612a03565b90506000600760006001600254610e669190612a03565b81526020019081526020016000209050858160000160006101000a81548173ffffffffffffffffffffffffffffffffffffffff021916908373ffffffffffffffffffffffffffffffffffffffff16021790555082816001018190555081816002018190555083816004019080519060200190610ee3929190611c40565b5084816003019080519060200190610efc929190611cc6565b5060008160050160006101000a81548160ff02191690831515021790555060008160050160016101000a81548160ff02191690831515021790555060008160060181905550600160026000828254610f549190612a03565b92505081905550600160009054906101000a900473ffffffffffffffffffffffffffffffffffffffff1673ffffffffffffffffffffffffffffffffffffffff16636161eb188760016040518363ffffffff1660e01b8152600401610fb9929190612a9e565b600060405180830381600087803b158015610fd357600080fd5b505af1158015610fe7573d6000803e3d6000fd5b50505050505050505050565b6000600460009054906101000a900473ffffffffffffffffffffffffffffffffffffffff1673ffffffffffffffffffffffffffffffffffffffff1663faa9e569836040518263ffffffff1660e01b815260040161105091906122a1565b60806040518083038186803b15801561106857600080fd5b505afa15801561107c573d6000803e3d6000fd5b505050506040513d601f19601f820116820180604052508101906110a091906126e0565b606001519050919050565b60606007600083815260200190815260200160002060040180546110ce90612542565b80601f01602080910402602001604051908101604052809291908181526020018280546110fa90612542565b80156111475780601f1061111c57610100808354040283529160200191611147565b820191906000526020600020905b81548152906001019060200180831161112a57829003601f168201915b50505050509050919050565b3373ffffffffffffffffffffffffffffffffffffffff1660008054906101000a900473ffffffffffffffffffffffffffffffffffffffff1673ffffffffffffffffffffffffffffffffffffffff16146111ab57600080fd5b80600560006101000a81548173ffffffffffffffffffffffffffffffffffffffff021916908373ffffffffffffffffffffffffffffffffffffffff16021790555050565b606060076000838152602001908152602001600020600301805461121290612542565b80601f016020809104026020016040519081016040528092919081815260200182805461123e90612542565b801561128b5780601f106112605761010080835404028352916020019161128b565b820191906000526020600020905b81548152906001019060200180831161126e57829003601f168201915b50505050509050919050565b6000806000606080600080600080600760008b815260200190815260200160002090508060000160009054906101000a900473ffffffffffffffffffffffffffffffffffffffff168160010154826002015483600301846004018560050160009054906101000a900460ff168660050160019054906101000a900460ff16876006015484805461132690612542565b80601f016020809104026020016040519081016040528092919081815260200182805461135290612542565b801561139f5780601f106113745761010080835404028352916020019161139f565b820191906000526020600020905b81548152906001019060200180831161138257829003601f168201915b505050505094508380546113b290612542565b80601f01602080910402602001604051908101604052809291908181526020018280546113de90612542565b801561142b5780601f106114005761010080835404028352916020019161142b565b820191906000526020600020905b81548152906001019060200180831161140e57829003601f168201915b505050505093509850985098509850985098509850985050919395975091939597565b60006114f760076000848152602001908152602001600020600401805461147490612542565b80601f01602080910402602001604051908101604052809291908181526020018280546114a090612542565b80156114ed5780601f106114c2576101008083540402835291602001916114ed565b820191906000526020600020905b8154815290600101906020018083116114d057829003601f168201915b50505050506105cd565b61150057600080fd5b6115a760076000848152602001908152602001600020600401805461152490612542565b80601f016020809104026020016040519081016040528092919081815260200182805461155090612542565b801561159d5780601f106115725761010080835404028352916020019161159d565b820191906000526020600020905b81548152906001019060200180831161158057829003601f168201915b5050505050610ff3565b156115e7576040517f08c379a00000000000000000000000000000000000000000000000000000000081526004016115de906128cc565b60405180910390fd5b600560009054906101000a900473ffffffffffffffffffffffffffffffffffffffff1673ffffffffffffffffffffffffffffffffffffffff16633f2699d085856040518363ffffffff1660e01b8152600401611644929190612ac7565b600060405180830381600087803b15801561165e57600080fd5b505af1158015611672573d6000803e3d6000fd5b50505050600460009054906101000a900473ffffffffffffffffffffffffffffffffffffffff1673ffffffffffffffffffffffffffffffffffffffff1663589dad3e600760008581526020019081526020016000206004016040518263ffffffff1660e01b81526004016116e6919061285e565b602060405180830381600087803b15801561170057600080fd5b505af1158015611714573d6000803e3d6000fd5b505050506040513d601f19601f82011682018060405250810190611738919061279f565b50600190509392505050565b6000600160009054906101000a900473ffffffffffffffffffffffffffffffffffffffff1673ffffffffffffffffffffffffffffffffffffffff166370a08231856040518263ffffffff1660e01b81526004016117a1919061203f565b60206040518083038186803b1580156117b957600080fd5b505afa1580156117cd573d6000803e3d6000fd5b505050506040513d601f19601f820116820180604052508101906117f19190612915565b11611831576040517f08c379a0000000000000000000000000000000000000000000000000000000008152600401611828906129b4565b60405180910390fd5b600015156007600084815260200190815260200160002060070160008573ffffffffffffffffffffffffffffffffffffffff1673ffffffffffffffffffffffffffffffffffffffff16815260200190815260200160002060000160009054906101000a900460ff161515146118db576040517f08c379a00000000000000000000000000000000000000000000000000000000081526004016118d290612b62565b60405180910390fd5b60405180604001604052806001151581526020018215158152506007600084815260200190815260200160002060070160008573ffffffffffffffffffffffffffffffffffffffff1673ffffffffffffffffffffffffffffffffffffffff16815260200190815260200160002060008201518160000160006101000a81548160ff02191690831515021790555060208201518160000160016101000a81548160ff02191690831515021790555090505060086000838152602001908152602001600020839080600181540180825580915050600190039060005260206000200160009091909190916101000a81548173ffffffffffffffffffffffffffffffffffffffff021916908373ffffffffffffffffffffffffffffffffffffffff160217905550600160009054906101000a900473ffffffffffffffffffffffffffffffffffffffff1673ffffffffffffffffffffffffffffffffffffffff166318160ddd6040518163ffffffff1660e01b815260040160206040518083038186803b158015611a6757600080fd5b505afa158015611a7b573d6000803e3d6000fd5b505050506040513d601f19601f82011682018060405250810190611a9f9190612915565b6064670de0b6b3a7640000600160009054906101000a900473ffffffffffffffffffffffffffffffffffffffff1673ffffffffffffffffffffffffffffffffffffffff166370a08231876040518263ffffffff1660e01b8152600401611b05919061203f565b60206040518083038186803b158015611b1d57600080fd5b505afa158015611b31573d6000803e3d6000fd5b505050506040513d601f19601f82011682018060405250810190611b559190612915565b611b5f9190612b82565b611b699190612b82565b611b739190612c0b565b600760008481526020019081526020016000206006016000828254611b989190612a03565b92505081905550505050565b3373ffffffffffffffffffffffffffffffffffffffff1660008054906101000a900473ffffffffffffffffffffffffffffffffffffffff1673ffffffffffffffffffffffffffffffffffffffff1614611bfc57600080fd5b80600460006101000a81548173ffffffffffffffffffffffffffffffffffffffff021916908373ffffffffffffffffffffffffffffffffffffffff16021790555050565b828054611c4c90612542565b90600052602060002090601f016020900481019282611c6e5760008555611cb5565b82601f10611c8757805160ff1916838001178555611cb5565b82800160010185558215611cb5579182015b82811115611cb4578251825591602001919060010190611c99565b5b509050611cc29190611d4c565b5090565b828054611cd290612542565b90600052602060002090601f016020900481019282611cf45760008555611d3b565b82601f10611d0d57805160ff1916838001178555611d3b565b82800160010185558215611d3b579182015b82811115611d3a578251825591602001919060010190611d1f565b5b509050611d489190611d4c565b5090565b5b80821115611d65576000816000905550600101611d4d565b5090565b6000604051905090565b600080fd5b600080fd5b6000819050919050565b611d9081611d7d565b8114611d9b57600080fd5b50565b600081359050611dad81611d87565b92915050565b600060208284031215611dc957611dc8611d73565b5b6000611dd784828501611d9e565b91505092915050565b60008115159050919050565b611df581611de0565b82525050565b6000602082019050611e106000830184611dec565b92915050565b600073ffffffffffffffffffffffffffffffffffffffff82169050919050565b6000611e4182611e16565b9050919050565b611e5181611e36565b8114611e5c57600080fd5b50565b600081359050611e6e81611e48565b92915050565b600060208284031215611e8a57611e89611d73565b5b6000611e9884828501611e5f565b91505092915050565b600080fd5b600080fd5b6000601f19601f8301169050919050565b7f4e487b7100000000000000000000000000000000000000000000000000000000600052604160045260246000fd5b611ef482611eab565b810181811067ffffffffffffffff82111715611f1357611f12611ebc565b5b80604052505050565b6000611f26611d69565b9050611f328282611eeb565b919050565b600067ffffffffffffffff821115611f5257611f51611ebc565b5b611f5b82611eab565b9050602081019050919050565b82818337600083830152505050565b6000611f8a611f8584611f37565b611f1c565b905082815260208101848484011115611fa657611fa5611ea6565b5b611fb1848285611f68565b509392505050565b600082601f830112611fce57611fcd611ea1565b5b8135611fde848260208601611f77565b91505092915050565b600060208284031215611ffd57611ffc611d73565b5b600082013567ffffffffffffffff81111561201b5761201a611d78565b5b61202784828501611fb9565b91505092915050565b61203981611e36565b82525050565b60006020820190506120546000830184612030565b92915050565b6000806040838503121561207157612070611d73565b5b600061207f85828601611d9e565b925050602061209085828601611d9e565b9150509250929050565b6000806000606084860312156120b3576120b2611d73565b5b60006120c186828701611e5f565b93505060206120d286828701611e5f565b92505060406120e386828701611d9e565b9150509250925092565b600067ffffffffffffffff82111561210857612107611ebc565b5b61211182611eab565b9050602081019050919050565b600061213161212c846120ed565b611f1c565b90508281526020810184848401111561214d5761214c611ea6565b5b612158848285611f68565b509392505050565b600082601f83011261217557612174611ea1565b5b813561218584826020860161211e565b91505092915050565b6000806000606084860312156121a7576121a6611d73565b5b60006121b586828701611e5f565b935050602084013567ffffffffffffffff8111156121d6576121d5611d78565b5b6121e286828701612160565b925050604084013567ffffffffffffffff81111561220357612202611d78565b5b61220f86828701612160565b9150509250925092565b600081519050919050565b600082825260208201905092915050565b60005b83811015612253578082015181840152602081019050612238565b83811115612262576000848401525b50505050565b600061227382612219565b61227d8185612224565b935061228d818560208601612235565b61229681611eab565b840191505092915050565b600060208201905081810360008301526122bb8184612268565b905092915050565b600081519050919050565b600082825260208201905092915050565b60006122ea826122c3565b6122f481856122ce565b9350612304818560208601612235565b61230d81611eab565b840191505092915050565b6000602082019050818103600083015261233281846122df565b905092915050565b61234381611d7d565b82525050565b60006101008201905061235f600083018b612030565b61236c602083018a61233a565b612379604083018961233a565b818103606083015261238b81886122df565b9050818103608083015261239f8187612268565b90506123ae60a0830186611dec565b6123bb60c0830185611dec565b6123c860e083018461233a565b9998505050505050505050565b6000806000606084860312156123ee576123ed611d73565b5b60006123fc86828701611e5f565b935050602061240d86828701611d9e565b925050604061241e86828701611d9e565b9150509250925092565b61243181611de0565b811461243c57600080fd5b50565b60008135905061244e81612428565b92915050565b60008060006060848603121561246d5761246c611d73565b5b600061247b86828701611e5f565b935050602061248c86828701611d9e565b925050604061249d8682870161243f565b9150509250925092565b7f476f7665726e616e6365203a206f6e6c79206f776e6572000000000000000000600082015250565b60006124dd6017836122ce565b91506124e8826124a7565b602082019050919050565b6000602082019050818103600083015261250c816124d0565b9050919050565b7f4e487b7100000000000000000000000000000000000000000000000000000000600052602260045260246000fd5b6000600282049050600182168061255a57607f821691505b6020821081141561256e5761256d612513565b5b50919050565b60008190508160005260206000209050919050565b6000815461259681612542565b6125a08186612224565b945060018216600081146125bb57600181146125cd57612600565b60ff1983168652602086019350612600565b6125d685612574565b60005b838110156125f8578154818901526001820191506020810190506125d9565b808801955050505b50505092915050565b600060408201905081810360008301526126238185612589565b9050612632602083018461233a565b9392505050565b600080fd5b60008151905061264d81612428565b92915050565b60008151905061266281611d87565b92915050565b60006080828403121561267e5761267d612639565b5b6126886080611f1c565b905060006126988482850161263e565b60008301525060206126ac8482850161263e565b60208301525060406126c084828501612653565b60408301525060606126d48482850161263e565b60608301525092915050565b6000608082840312156126f6576126f5611d73565b5b600061270484828501612668565b91505092915050565b7f476f7665726e616e6365203a2049742773206120766f7465207468617420646960008201527f646e277420706173732e00000000000000000000000000000000000000000000602082015250565b6000612769602a836122ce565b91506127748261270d565b604082019050919050565b600060208201905081810360008301526127988161275c565b9050919050565b6000602082840312156127b5576127b4611d73565b5b60006127c38482850161263e565b91505092915050565b7f476f7665726e616e6365203a2054696d656c6f636b2069732072756e6e696e6760008201527f2e00000000000000000000000000000000000000000000000000000000000000602082015250565b60006128286021836122ce565b9150612833826127cc565b604082019050919050565b600060208201905081810360008301526128578161281b565b9050919050565b600060208201905081810360008301526128788184612589565b905092915050565b7f497320436c6f7365640000000000000000000000000000000000000000000000600082015250565b60006128b66009836122ce565b91506128c182612880565b602082019050919050565b600060208201905081810360008301526128e5816128a9565b9050919050565b60006040820190506129016000830185612030565b61290e6020830184612030565b9392505050565b60006020828403121561292b5761292a611d73565b5b600061293984828501612653565b91505092915050565b7f476f7665726e616e6365203a20446f206e6f742068617665206120764153442060008201527f746f6b656e2e0000000000000000000000000000000000000000000000000000602082015250565b600061299e6026836122ce565b91506129a982612942565b604082019050919050565b600060208201905081810360008301526129cd81612991565b9050919050565b7f4e487b7100000000000000000000000000000000000000000000000000000000600052601160045260246000fd5b6000612a0e82611d7d565b9150612a1983611d7d565b9250827fffffffffffffffffffffffffffffffffffffffffffffffffffffffffffffffff03821115612a4e57612a4d6129d4565b5b828201905092915050565b6000819050919050565b6000819050919050565b6000612a88612a83612a7e84612a59565b612a63565b611d7d565b9050919050565b612a9881612a6d565b82525050565b6000604082019050612ab36000830185612030565b612ac06020830184612a8f565b9392505050565b6000604082019050612adc6000830185612030565b612ae9602083018461233a565b9392505050565b7f476f7665726e616e6365203a20497420697320612070726f706f73616c20746860008201527f61742068617320616c7265616479206265656e20766f746564206f6e2e000000602082015250565b6000612b4c603d836122ce565b9150612b5782612af0565b604082019050919050565b60006020820190508181036000830152612b7b81612b3f565b9050919050565b6000612b8d82611d7d565b9150612b9883611d7d565b9250817fffffffffffffffffffffffffffffffffffffffffffffffffffffffffffffffff0483118215151615612bd157612bd06129d4565b5b828202905092915050565b7f4e487b7100000000000000000000000000000000000000000000000000000000600052601260045260246000fd5b6000612c1682611d7d565b9150612c2183611d7d565b925082612c3157612c30612bdc565b5b82820490509291505056fea2646970667358221220245bc5bd409cb2d892afe86402c783ea20ca4facf52e889b3700df5e8938054864736f6c63430008090033",
  "linkReferences": {},
  "deployedLinkReferences": {}
}