{
  "_format": "hh-sol-artifact-1",
  "contractName": "Governance",
  "sourceName": "contracts/governance.sol",
  "abi": [
    {
      "inputs": [
        {
          "internalType": "address",
          "name": "_owner",
          "type": "address"
        }
      ],
      "stateMutability": "nonpayable",
      "type": "constructor"
    },
    {
      "inputs": [
        {
          "internalType": "address",
          "name": "_token",
          "type": "address"
        },
        {
          "internalType": "uint256",
          "name": "_level",
          "type": "uint256"
        },
        {
          "internalType": "uint256",
          "name": "_proposal",
          "type": "uint256"
        }
      ],
      "name": "changeLevel",
      "outputs": [
        {
          "internalType": "bool",
          "name": "",
          "type": "bool"
        }
      ],
      "stateMutability": "nonpayable",
      "type": "function"
    },
    {
      "inputs": [
        {
          "internalType": "address",
          "name": "_differentToken",
          "type": "address"
        },
        {
          "internalType": "address",
          "name": "_AsdToken",
          "type": "address"
        },
        {
          "internalType": "uint256",
          "name": "_proposal",
          "type": "uint256"
        }
      ],
      "name": "createPool",
      "outputs": [
        {
          "internalType": "bool",
          "name": "",
          "type": "bool"
        }
      ],
      "stateMutability": "nonpayable",
      "type": "function"
    },
    {
      "inputs": [
        {
          "internalType": "uint256",
          "name": "_proposal",
          "type": "uint256"
        }
      ],
      "name": "getCallData",
      "outputs": [
        {
          "internalType": "string",
          "name": "",
          "type": "string"
        }
      ],
      "stateMutability": "view",
      "type": "function"
    },
    {
      "inputs": [
        {
          "internalType": "uint256",
          "name": "_proposal",
          "type": "uint256"
        }
      ],
      "name": "getCallFunction",
      "outputs": [
        {
          "internalType": "bytes",
          "name": "",
          "type": "bytes"
        }
      ],
      "stateMutability": "view",
      "type": "function"
    },
    {
      "inputs": [
        {
          "internalType": "uint256",
          "name": "_proposal",
          "type": "uint256"
        }
      ],
      "name": "getHasVote",
      "outputs": [
        {
          "internalType": "bool",
          "name": "",
          "type": "bool"
        }
      ],
      "stateMutability": "view",
      "type": "function"
    },
    {
      "inputs": [
        {
          "internalType": "uint256",
          "name": "_idx",
          "type": "uint256"
        }
      ],
      "name": "getProposal",
      "outputs": [
        {
          "internalType": "address",
          "name": "",
          "type": "address"
        },
        {
          "internalType": "uint256",
          "name": "",
          "type": "uint256"
        },
        {
          "internalType": "uint256",
          "name": "",
          "type": "uint256"
        },
        {
          "internalType": "string",
          "name": "",
          "type": "string"
        },
        {
          "internalType": "bytes",
          "name": "",
          "type": "bytes"
        },
        {
          "internalType": "bool",
          "name": "",
          "type": "bool"
        },
        {
          "internalType": "bool",
          "name": "",
          "type": "bool"
        },
        {
          "internalType": "uint256",
          "name": "",
          "type": "uint256"
        }
      ],
      "stateMutability": "view",
      "type": "function"
    },
    {
      "inputs": [
        {
          "internalType": "bytes",
          "name": "funcName",
          "type": "bytes"
        }
      ],
      "name": "isClose",
      "outputs": [
        {
          "internalType": "bool",
          "name": "",
          "type": "bool"
        }
      ],
      "stateMutability": "view",
      "type": "function"
    },
    {
      "inputs": [
        {
          "internalType": "bytes",
          "name": "funcName",
          "type": "bytes"
        }
      ],
      "name": "isStatus",
      "outputs": [
        {
          "internalType": "bool",
          "name": "",
          "type": "bool"
        }
      ],
      "stateMutability": "view",
      "type": "function"
    },
    {
      "inputs": [
        {
          "internalType": "uint256",
          "name": "",
          "type": "uint256"
        }
      ],
      "name": "participants",
      "outputs": [
        {
          "internalType": "address",
          "name": "",
          "type": "address"
        }
      ],
      "stateMutability": "view",
      "type": "function"
    },
    {
      "inputs": [
        {
          "internalType": "uint256",
          "name": "_proposal",
          "type": "uint256"
        },
        {
          "internalType": "uint256",
          "name": "etc",
          "type": "uint256"
        }
      ],
      "name": "proposalExecute",
      "outputs": [
        {
          "internalType": "bool",
          "name": "",
          "type": "bool"
        }
      ],
      "stateMutability": "nonpayable",
      "type": "function"
    },
    {
      "inputs": [
        {
          "internalType": "address",
          "name": "_proposer",
          "type": "address"
        },
        {
          "internalType": "string",
          "name": "_callData",
          "type": "string"
        },
        {
          "internalType": "string",
          "name": "_callFunction",
          "type": "string"
        }
      ],
      "name": "propose",
      "outputs": [],
      "stateMutability": "nonpayable",
      "type": "function"
    },
    {
      "inputs": [
        {
          "internalType": "address",
          "name": "_factory",
          "type": "address"
        }
      ],
      "name": "setFactoryAddress",
      "outputs": [],
      "stateMutability": "nonpayable",
      "type": "function"
    },
    {
      "inputs": [
        {
          "internalType": "address",
          "name": "_timelock",
          "type": "address"
        }
      ],
      "name": "setTimelockAddress",
      "outputs": [],
      "stateMutability": "nonpayable",
      "type": "function"
    },
    {
      "inputs": [
        {
          "internalType": "address",
          "name": "_token",
          "type": "address"
        }
      ],
      "name": "setTokenAddress",
      "outputs": [],
      "stateMutability": "nonpayable",
      "type": "function"
    },
    {
      "inputs": [
        {
          "internalType": "uint256",
          "name": "_proposal",
          "type": "uint256"
        }
      ],
      "name": "timelockExecute",
      "outputs": [
        {
          "internalType": "bool",
          "name": "",
          "type": "bool"
        }
      ],
      "stateMutability": "nonpayable",
      "type": "function"
    },
    {
      "inputs": [
        {
          "internalType": "address",
          "name": "_participant",
          "type": "address"
        },
        {
          "internalType": "uint256",
          "name": "_proposal",
          "type": "uint256"
        },
        {
          "internalType": "bool",
          "name": "_agree",
          "type": "bool"
        }
      ],
      "name": "voting",
      "outputs": [],
      "stateMutability": "nonpayable",
      "type": "function"
    }
  ],
  "bytecode": "0x60806040523480156200001157600080fd5b5060405162002e8538038062002e85833981810160405281019062000037919062000129565b806000806101000a81548173ffffffffffffffffffffffffffffffffffffffff021916908373ffffffffffffffffffffffffffffffffffffffff16021790555030600360006101000a81548173ffffffffffffffffffffffffffffffffffffffff021916908373ffffffffffffffffffffffffffffffffffffffff160217905550506200015b565b600080fd5b600073ffffffffffffffffffffffffffffffffffffffff82169050919050565b6000620000f182620000c4565b9050919050565b6200010381620000e4565b81146200010f57600080fd5b50565b6000815190506200012381620000f8565b92915050565b600060208284031215620001425762000141620000bf565b5b6000620001528482850162000112565b91505092915050565b612d1a806200016b6000396000f3fe608060405234801561001057600080fd5b50600436106101005760003560e01c80636091e29211610097578063c7f758a811610066578063c7f758a814610309578063d5f4ef3714610340578063e32d90b914610370578063fca79ca21461038c57610100565b80636091e2921461025d57806383c17c551461028d578063904f289c146102a957806392f415ec146102d957610100565b80634a28067f116100d35780634a28067f146101b157806351810fb5146101e15780635350ada8146102115780635ea7c6561461022d57610100565b806320a477b01461010557806326a4e8d21461013557806330f259ea1461015157806335c1d34914610181575b600080fd5b61011f600480360381019061011a9190611e5b565b6103a8565b60405161012c9190611ea3565b60405180910390f35b61014f600480360381019061014a9190611f1c565b61056c565b005b61016b6004803603810190610166919061208f565b610608565b6040516101789190611ea3565b60405180910390f35b61019b60048036038101906101969190611e5b565b6106c0565b6040516101a891906120e7565b60405180910390f35b6101cb60048036038101906101c69190612102565b6106ff565b6040516101d89190611ea3565b60405180910390f35b6101fb60048036038101906101f69190612142565b610a92565b6040516102089190611ea3565b60405180910390f35b61022b60048036038101906102269190612236565b610d88565b005b6102476004803603810190610242919061208f565b61102e565b6040516102549190611ea3565b60405180910390f35b61027760048036038101906102729190611e5b565b6110e6565b6040516102849190612349565b60405180910390f35b6102a760048036038101906102a29190611f1c565b61118e565b005b6102c360048036038101906102be9190611e5b565b61122a565b6040516102d091906123c0565b60405180910390f35b6102f360048036038101906102ee9190611e5b565b6112d2565b6040516103009190611ea3565b60405180910390f35b610323600480360381019061031e9190611e5b565b61133f565b6040516103379897969594939291906123f1565b60405180910390f35b61035a6004803603810190610355919061247d565b6114f6565b6040516103679190611ea3565b60405180910390f35b61038a600480360381019061038591906124fc565b6117ec565b005b6103a660048036038101906103a19190611f1c565b611c4c565b005b60008060009054906101000a900473ffffffffffffffffffffffffffffffffffffffff1673ffffffffffffffffffffffffffffffffffffffff163373ffffffffffffffffffffffffffffffffffffffff1614610439576040517f08c379a00000000000000000000000000000000000000000000000000000000081526004016104309061259b565b60405180910390fd5b60336007600084815260200190815260200160002060060154106105335760016007600084815260200190815260200160002060050160016101000a81548160ff021916908315150217905550600460009054906101000a900473ffffffffffffffffffffffffffffffffffffffff1673ffffffffffffffffffffffffffffffffffffffff16632c4076b660076000858152602001908152602001600020600401426040518363ffffffff1660e01b81526004016104f89291906126b1565b600060405180830381600087803b15801561051257600080fd5b505af1158015610526573d6000803e3d6000fd5b5050505060019050610567565b60016007600084815260200190815260200160002060050160006101000a81548160ff021916908315150217905550600090505b919050565b3373ffffffffffffffffffffffffffffffffffffffff1660008054906101000a900473ffffffffffffffffffffffffffffffffffffffff1673ffffffffffffffffffffffffffffffffffffffff16146105c457600080fd5b80600160006101000a81548173ffffffffffffffffffffffffffffffffffffffff021916908373ffffffffffffffffffffffffffffffffffffffff16021790555050565b6000600460009054906101000a900473ffffffffffffffffffffffffffffffffffffffff1673ffffffffffffffffffffffffffffffffffffffff1663faa9e569836040518263ffffffff1660e01b81526004016106659190612349565b60806040518083038186803b15801561067d57600080fd5b505afa158015610691573d6000803e3d6000fd5b505050506040513d601f19601f820116820180604052508101906106b59190612788565b600001519050919050565b600681815481106106d057600080fd5b906000526020600020016000915054906101000a900473ffffffffffffffffffffffffffffffffffffffff1681565b60008060009054906101000a900473ffffffffffffffffffffffffffffffffffffffff1673ffffffffffffffffffffffffffffffffffffffff163373ffffffffffffffffffffffffffffffffffffffff1614610790576040517f08c379a00000000000000000000000000000000000000000000000000000000081526004016107879061259b565b60405180910390fd5b6007600084815260200190815260200160002060050160019054906101000a900460ff166107f3576040517f08c379a00000000000000000000000000000000000000000000000000000000081526004016107ea90612827565b60405180910390fd5b600460009054906101000a900473ffffffffffffffffffffffffffffffffffffffff1673ffffffffffffffffffffffffffffffffffffffff166392e876cd60076000868152602001908152602001600020600401426040518363ffffffff1660e01b81526004016108659291906126b1565b602060405180830381600087803b15801561087f57600080fd5b505af1158015610893573d6000803e3d6000fd5b505050506040513d601f19601f820116820180604052508101906108b79190612847565b6108f6576040517f08c379a00000000000000000000000000000000000000000000000000000000081526004016108ed906128e6565b60405180910390fd5b600460009054906101000a900473ffffffffffffffffffffffffffffffffffffffff1673ffffffffffffffffffffffffffffffffffffffff1663faa9e569600760008681526020019081526020016000206004016040518263ffffffff1660e01b81526004016109669190612906565b60806040518083038186803b15801561097e57600080fd5b505afa158015610992573d6000803e3d6000fd5b505050506040513d601f19601f820116820180604052508101906109b69190612788565b600001516109c357600080fd5b600460009054906101000a900473ffffffffffffffffffffffffffffffffffffffff1673ffffffffffffffffffffffffffffffffffffffff166392e876cd60076000868152602001908152602001600020600401846040518363ffffffff1660e01b8152600401610a359291906126b1565b602060405180830381600087803b158015610a4f57600080fd5b505af1158015610a63573d6000803e3d6000fd5b505050506040513d601f19601f82011682018060405250810190610a879190612847565b506001905092915050565b6000610b3b600760008481526020019081526020016000206004018054610ab8906125ea565b80601f0160208091040260200160405190810160405280929190818152602001828054610ae4906125ea565b8015610b315780601f10610b0657610100808354040283529160200191610b31565b820191906000526020600020905b815481529060010190602001808311610b1457829003601f168201915b5050505050610608565b610b4457600080fd5b610beb600760008481526020019081526020016000206004018054610b68906125ea565b80601f0160208091040260200160405190810160405280929190818152602001828054610b94906125ea565b8015610be15780601f10610bb657610100808354040283529160200191610be1565b820191906000526020600020905b815481529060010190602001808311610bc457829003601f168201915b505050505061102e565b15610c2b576040517f08c379a0000000000000000000000000000000000000000000000000000000008152600401610c2290612974565b60405180910390fd5b600560009054906101000a900473ffffffffffffffffffffffffffffffffffffffff1673ffffffffffffffffffffffffffffffffffffffff1663e343361585856040518363ffffffff1660e01b8152600401610c88929190612994565b600060405180830381600087803b158015610ca257600080fd5b505af1158015610cb6573d6000803e3d6000fd5b50505050600460009054906101000a900473ffffffffffffffffffffffffffffffffffffffff1673ffffffffffffffffffffffffffffffffffffffff1663589dad3e600760008581526020019081526020016000206004016040518263ffffffff1660e01b8152600401610d2a9190612906565b602060405180830381600087803b158015610d4457600080fd5b505af1158015610d58573d6000803e3d6000fd5b505050506040513d601f19601f82011682018060405250810190610d7c9190612847565b50600190509392505050565b6000600160009054906101000a900473ffffffffffffffffffffffffffffffffffffffff1673ffffffffffffffffffffffffffffffffffffffff166370a08231856040518263ffffffff1660e01b8152600401610de591906120e7565b60206040518083038186803b158015610dfd57600080fd5b505afa158015610e11573d6000803e3d6000fd5b505050506040513d601f19601f82011682018060405250810190610e3591906129bd565b11610e75576040517f08c379a0000000000000000000000000000000000000000000000000000000008152600401610e6c90612a5c565b60405180910390fd5b6000439050600061438043610e8a9190612aab565b90506000600760006001600254610ea19190612aab565b81526020019081526020016000209050858160000160006101000a81548173ffffffffffffffffffffffffffffffffffffffff021916908373ffffffffffffffffffffffffffffffffffffffff16021790555082816001018190555081816002018190555083816004019080519060200190610f1e929190611ce8565b5084816003019080519060200190610f37929190611d6e565b5060008160050160006101000a81548160ff02191690831515021790555060008160050160016101000a81548160ff02191690831515021790555060008160060181905550600160026000828254610f8f9190612aab565b92505081905550600160009054906101000a900473ffffffffffffffffffffffffffffffffffffffff1673ffffffffffffffffffffffffffffffffffffffff16636161eb188760016040518363ffffffff1660e01b8152600401610ff4929190612b46565b600060405180830381600087803b15801561100e57600080fd5b505af1158015611022573d6000803e3d6000fd5b50505050505050505050565b6000600460009054906101000a900473ffffffffffffffffffffffffffffffffffffffff1673ffffffffffffffffffffffffffffffffffffffff1663faa9e569836040518263ffffffff1660e01b815260040161108b9190612349565b60806040518083038186803b1580156110a357600080fd5b505afa1580156110b7573d6000803e3d6000fd5b505050506040513d601f19601f820116820180604052508101906110db9190612788565b606001519050919050565b6060600760008381526020019081526020016000206004018054611109906125ea565b80601f0160208091040260200160405190810160405280929190818152602001828054611135906125ea565b80156111825780601f1061115757610100808354040283529160200191611182565b820191906000526020600020905b81548152906001019060200180831161116557829003601f168201915b50505050509050919050565b3373ffffffffffffffffffffffffffffffffffffffff1660008054906101000a900473ffffffffffffffffffffffffffffffffffffffff1673ffffffffffffffffffffffffffffffffffffffff16146111e657600080fd5b80600560006101000a81548173ffffffffffffffffffffffffffffffffffffffff021916908373ffffffffffffffffffffffffffffffffffffffff16021790555050565b606060076000838152602001908152602001600020600301805461124d906125ea565b80601f0160208091040260200160405190810160405280929190818152602001828054611279906125ea565b80156112c65780601f1061129b576101008083540402835291602001916112c6565b820191906000526020600020905b8154815290600101906020018083116112a957829003601f168201915b50505050509050919050565b60006007600083815260200190815260200160002060070160003373ffffffffffffffffffffffffffffffffffffffff1673ffffffffffffffffffffffffffffffffffffffff16815260200190815260200160002060000160009054906101000a900460ff169050919050565b6000806000606080600080600080600760008b815260200190815260200160002090508060000160009054906101000a900473ffffffffffffffffffffffffffffffffffffffff168160010154826002015483600301846004018560050160009054906101000a900460ff168660050160019054906101000a900460ff1687600601548480546113ce906125ea565b80601f01602080910402602001604051908101604052809291908181526020018280546113fa906125ea565b80156114475780601f1061141c57610100808354040283529160200191611447565b820191906000526020600020905b81548152906001019060200180831161142a57829003601f168201915b5050505050945083805461145a906125ea565b80601f0160208091040260200160405190810160405280929190818152602001828054611486906125ea565b80156114d35780601f106114a8576101008083540402835291602001916114d3565b820191906000526020600020905b8154815290600101906020018083116114b657829003601f168201915b505050505093509850985098509850985098509850985050919395975091939597565b600061159f60076000848152602001908152602001600020600401805461151c906125ea565b80601f0160208091040260200160405190810160405280929190818152602001828054611548906125ea565b80156115955780601f1061156a57610100808354040283529160200191611595565b820191906000526020600020905b81548152906001019060200180831161157857829003601f168201915b5050505050610608565b6115a857600080fd5b61164f6007600084815260200190815260200160002060040180546115cc906125ea565b80601f01602080910402602001604051908101604052809291908181526020018280546115f8906125ea565b80156116455780601f1061161a57610100808354040283529160200191611645565b820191906000526020600020905b81548152906001019060200180831161162857829003601f168201915b505050505061102e565b1561168f576040517f08c379a000000000000000000000000000000000000000000000000000000000815260040161168690612974565b60405180910390fd5b600560009054906101000a900473ffffffffffffffffffffffffffffffffffffffff1673ffffffffffffffffffffffffffffffffffffffff16633f2699d085856040518363ffffffff1660e01b81526004016116ec929190612b6f565b600060405180830381600087803b15801561170657600080fd5b505af115801561171a573d6000803e3d6000fd5b50505050600460009054906101000a900473ffffffffffffffffffffffffffffffffffffffff1673ffffffffffffffffffffffffffffffffffffffff1663589dad3e600760008581526020019081526020016000206004016040518263ffffffff1660e01b815260040161178e9190612906565b602060405180830381600087803b1580156117a857600080fd5b505af11580156117bc573d6000803e3d6000fd5b505050506040513d601f19601f820116820180604052508101906117e09190612847565b50600190509392505050565b6000600160009054906101000a900473ffffffffffffffffffffffffffffffffffffffff1673ffffffffffffffffffffffffffffffffffffffff166370a08231856040518263ffffffff1660e01b815260040161184991906120e7565b60206040518083038186803b15801561186157600080fd5b505afa158015611875573d6000803e3d6000fd5b505050506040513d601f19601f8201168201806040525081019061189991906129bd565b116118d9576040517f08c379a00000000000000000000000000000000000000000000000000000000081526004016118d090612a5c565b60405180910390fd5b600015156007600084815260200190815260200160002060070160008573ffffffffffffffffffffffffffffffffffffffff1673ffffffffffffffffffffffffffffffffffffffff16815260200190815260200160002060000160009054906101000a900460ff16151514611983576040517f08c379a000000000000000000000000000000000000000000000000000000000815260040161197a90612c0a565b60405180910390fd5b60405180604001604052806001151581526020018215158152506007600084815260200190815260200160002060070160008573ffffffffffffffffffffffffffffffffffffffff1673ffffffffffffffffffffffffffffffffffffffff16815260200190815260200160002060008201518160000160006101000a81548160ff02191690831515021790555060208201518160000160016101000a81548160ff02191690831515021790555090505060086000838152602001908152602001600020839080600181540180825580915050600190039060005260206000200160009091909190916101000a81548173ffffffffffffffffffffffffffffffffffffffff021916908373ffffffffffffffffffffffffffffffffffffffff160217905550600160009054906101000a900473ffffffffffffffffffffffffffffffffffffffff1673ffffffffffffffffffffffffffffffffffffffff166318160ddd6040518163ffffffff1660e01b815260040160206040518083038186803b158015611b0f57600080fd5b505afa158015611b23573d6000803e3d6000fd5b505050506040513d601f19601f82011682018060405250810190611b4791906129bd565b6064670de0b6b3a7640000600160009054906101000a900473ffffffffffffffffffffffffffffffffffffffff1673ffffffffffffffffffffffffffffffffffffffff166370a08231876040518263ffffffff1660e01b8152600401611bad91906120e7565b60206040518083038186803b158015611bc557600080fd5b505afa158015611bd9573d6000803e3d6000fd5b505050506040513d601f19601f82011682018060405250810190611bfd91906129bd565b611c079190612c2a565b611c119190612c2a565b611c1b9190612cb3565b600760008481526020019081526020016000206006016000828254611c409190612aab565b92505081905550505050565b3373ffffffffffffffffffffffffffffffffffffffff1660008054906101000a900473ffffffffffffffffffffffffffffffffffffffff1673ffffffffffffffffffffffffffffffffffffffff1614611ca457600080fd5b80600460006101000a81548173ffffffffffffffffffffffffffffffffffffffff021916908373ffffffffffffffffffffffffffffffffffffffff16021790555050565b828054611cf4906125ea565b90600052602060002090601f016020900481019282611d165760008555611d5d565b82601f10611d2f57805160ff1916838001178555611d5d565b82800160010185558215611d5d579182015b82811115611d5c578251825591602001919060010190611d41565b5b509050611d6a9190611df4565b5090565b828054611d7a906125ea565b90600052602060002090601f016020900481019282611d9c5760008555611de3565b82601f10611db557805160ff1916838001178555611de3565b82800160010185558215611de3579182015b82811115611de2578251825591602001919060010190611dc7565b5b509050611df09190611df4565b5090565b5b80821115611e0d576000816000905550600101611df5565b5090565b6000604051905090565b600080fd5b600080fd5b6000819050919050565b611e3881611e25565b8114611e4357600080fd5b50565b600081359050611e5581611e2f565b92915050565b600060208284031215611e7157611e70611e1b565b5b6000611e7f84828501611e46565b91505092915050565b60008115159050919050565b611e9d81611e88565b82525050565b6000602082019050611eb86000830184611e94565b92915050565b600073ffffffffffffffffffffffffffffffffffffffff82169050919050565b6000611ee982611ebe565b9050919050565b611ef981611ede565b8114611f0457600080fd5b50565b600081359050611f1681611ef0565b92915050565b600060208284031215611f3257611f31611e1b565b5b6000611f4084828501611f07565b91505092915050565b600080fd5b600080fd5b6000601f19601f8301169050919050565b7f4e487b7100000000000000000000000000000000000000000000000000000000600052604160045260246000fd5b611f9c82611f53565b810181811067ffffffffffffffff82111715611fbb57611fba611f64565b5b80604052505050565b6000611fce611e11565b9050611fda8282611f93565b919050565b600067ffffffffffffffff821115611ffa57611ff9611f64565b5b61200382611f53565b9050602081019050919050565b82818337600083830152505050565b600061203261202d84611fdf565b611fc4565b90508281526020810184848401111561204e5761204d611f4e565b5b612059848285612010565b509392505050565b600082601f83011261207657612075611f49565b5b813561208684826020860161201f565b91505092915050565b6000602082840312156120a5576120a4611e1b565b5b600082013567ffffffffffffffff8111156120c3576120c2611e20565b5b6120cf84828501612061565b91505092915050565b6120e181611ede565b82525050565b60006020820190506120fc60008301846120d8565b92915050565b6000806040838503121561211957612118611e1b565b5b600061212785828601611e46565b925050602061213885828601611e46565b9150509250929050565b60008060006060848603121561215b5761215a611e1b565b5b600061216986828701611f07565b935050602061217a86828701611f07565b925050604061218b86828701611e46565b9150509250925092565b600067ffffffffffffffff8211156121b0576121af611f64565b5b6121b982611f53565b9050602081019050919050565b60006121d96121d484612195565b611fc4565b9050828152602081018484840111156121f5576121f4611f4e565b5b612200848285612010565b509392505050565b600082601f83011261221d5761221c611f49565b5b813561222d8482602086016121c6565b91505092915050565b60008060006060848603121561224f5761224e611e1b565b5b600061225d86828701611f07565b935050602084013567ffffffffffffffff81111561227e5761227d611e20565b5b61228a86828701612208565b925050604084013567ffffffffffffffff8111156122ab576122aa611e20565b5b6122b786828701612208565b9150509250925092565b600081519050919050565b600082825260208201905092915050565b60005b838110156122fb5780820151818401526020810190506122e0565b8381111561230a576000848401525b50505050565b600061231b826122c1565b61232581856122cc565b93506123358185602086016122dd565b61233e81611f53565b840191505092915050565b600060208201905081810360008301526123638184612310565b905092915050565b600081519050919050565b600082825260208201905092915050565b60006123928261236b565b61239c8185612376565b93506123ac8185602086016122dd565b6123b581611f53565b840191505092915050565b600060208201905081810360008301526123da8184612387565b905092915050565b6123eb81611e25565b82525050565b600061010082019050612407600083018b6120d8565b612414602083018a6123e2565b61242160408301896123e2565b81810360608301526124338188612387565b905081810360808301526124478187612310565b905061245660a0830186611e94565b61246360c0830185611e94565b61247060e08301846123e2565b9998505050505050505050565b60008060006060848603121561249657612495611e1b565b5b60006124a486828701611f07565b93505060206124b586828701611e46565b92505060406124c686828701611e46565b9150509250925092565b6124d981611e88565b81146124e457600080fd5b50565b6000813590506124f6816124d0565b92915050565b60008060006060848603121561251557612514611e1b565b5b600061252386828701611f07565b935050602061253486828701611e46565b9250506040612545868287016124e7565b9150509250925092565b7f476f7665726e616e6365203a206f6e6c79206f776e6572000000000000000000600082015250565b6000612585601783612376565b91506125908261254f565b602082019050919050565b600060208201905081810360008301526125b481612578565b9050919050565b7f4e487b7100000000000000000000000000000000000000000000000000000000600052602260045260246000fd5b6000600282049050600182168061260257607f821691505b60208210811415612616576126156125bb565b5b50919050565b60008190508160005260206000209050919050565b6000815461263e816125ea565b61264881866122cc565b945060018216600081146126635760018114612675576126a8565b60ff19831686526020860193506126a8565b61267e8561261c565b60005b838110156126a057815481890152600182019150602081019050612681565b808801955050505b50505092915050565b600060408201905081810360008301526126cb8185612631565b90506126da60208301846123e2565b9392505050565b600080fd5b6000815190506126f5816124d0565b92915050565b60008151905061270a81611e2f565b92915050565b600060808284031215612726576127256126e1565b5b6127306080611fc4565b90506000612740848285016126e6565b6000830152506020612754848285016126e6565b6020830152506040612768848285016126fb565b604083015250606061277c848285016126e6565b60608301525092915050565b60006080828403121561279e5761279d611e1b565b5b60006127ac84828501612710565b91505092915050565b7f476f7665726e616e6365203a2049742773206120766f7465207468617420646960008201527f646e277420706173732e00000000000000000000000000000000000000000000602082015250565b6000612811602a83612376565b915061281c826127b5565b604082019050919050565b6000602082019050818103600083015261284081612804565b9050919050565b60006020828403121561285d5761285c611e1b565b5b600061286b848285016126e6565b91505092915050565b7f476f7665726e616e6365203a2054696d656c6f636b2069732072756e6e696e6760008201527f2e00000000000000000000000000000000000000000000000000000000000000602082015250565b60006128d0602183612376565b91506128db82612874565b604082019050919050565b600060208201905081810360008301526128ff816128c3565b9050919050565b600060208201905081810360008301526129208184612631565b905092915050565b7f497320436c6f7365640000000000000000000000000000000000000000000000600082015250565b600061295e600983612376565b915061296982612928565b602082019050919050565b6000602082019050818103600083015261298d81612951565b9050919050565b60006040820190506129a960008301856120d8565b6129b660208301846120d8565b9392505050565b6000602082840312156129d3576129d2611e1b565b5b60006129e1848285016126fb565b91505092915050565b7f476f7665726e616e6365203a20446f206e6f742068617665206120764153442060008201527f746f6b656e2e0000000000000000000000000000000000000000000000000000602082015250565b6000612a46602683612376565b9150612a51826129ea565b604082019050919050565b60006020820190508181036000830152612a7581612a39565b9050919050565b7f4e487b7100000000000000000000000000000000000000000000000000000000600052601160045260246000fd5b6000612ab682611e25565b9150612ac183611e25565b9250827fffffffffffffffffffffffffffffffffffffffffffffffffffffffffffffffff03821115612af657612af5612a7c565b5b828201905092915050565b6000819050919050565b6000819050919050565b6000612b30612b2b612b2684612b01565b612b0b565b611e25565b9050919050565b612b4081612b15565b82525050565b6000604082019050612b5b60008301856120d8565b612b686020830184612b37565b9392505050565b6000604082019050612b8460008301856120d8565b612b9160208301846123e2565b9392505050565b7f476f7665726e616e6365203a20497420697320612070726f706f73616c20746860008201527f61742068617320616c7265616479206265656e20766f746564206f6e2e000000602082015250565b6000612bf4603d83612376565b9150612bff82612b98565b604082019050919050565b60006020820190508181036000830152612c2381612be7565b9050919050565b6000612c3582611e25565b9150612c4083611e25565b9250817fffffffffffffffffffffffffffffffffffffffffffffffffffffffffffffffff0483118215151615612c7957612c78612a7c565b5b828202905092915050565b7f4e487b7100000000000000000000000000000000000000000000000000000000600052601260045260246000fd5b6000612cbe82611e25565b9150612cc983611e25565b925082612cd957612cd8612c84565b5b82820490509291505056fea2646970667358221220738d19f46c41166af9dda6eea037ef787aaaa9c6f939865f0d78d52b0c21a08464736f6c63430008090033",
  "linkReferences": {},
  "deployedLinkReferences": {}
}