{
  "_format": "hh-sol-artifact-1",
  "contractName": "Sdeposit",
  "sourceName": "contracts/Sdeposit.sol",
  "abi": [
    {
      "inputs": [],
      "stateMutability": "nonpayable",
      "type": "constructor"
    },
    {
      "inputs": [
        {
          "internalType": "address",
          "name": "_userAccount",
          "type": "address"
        }
      ],
      "name": "claimAmountcheck",
      "outputs": [],
      "stateMutability": "nonpayable",
      "type": "function"
    },
    {
      "inputs": [
        {
          "internalType": "address",
          "name": "",
          "type": "address"
        }
      ],
      "name": "depositInfo",
      "outputs": [
        {
          "internalType": "address",
          "name": "differToken",
          "type": "address"
        },
        {
          "internalType": "uint256",
          "name": "depositAmount",
          "type": "uint256"
        },
        {
          "internalType": "uint256",
          "name": "deposittime",
          "type": "uint256"
        }
      ],
      "stateMutability": "view",
      "type": "function"
    },
    {
      "inputs": [
        {
          "internalType": "address",
          "name": "_userAccount",
          "type": "address"
        }
      ],
      "name": "getAccountBalance",
      "outputs": [
        {
          "internalType": "uint256",
          "name": "",
          "type": "uint256"
        }
      ],
      "stateMutability": "nonpayable",
      "type": "function"
    },
    {
      "inputs": [],
      "name": "returnValue",
      "outputs": [
        {
          "internalType": "uint256",
          "name": "",
          "type": "uint256"
        }
      ],
      "stateMutability": "view",
      "type": "function"
    },
    {
      "inputs": [
        {
          "internalType": "address",
          "name": "_userAccount",
          "type": "address"
        },
        {
          "internalType": "address",
          "name": "_factoryAddress",
          "type": "address"
        },
        {
          "internalType": "address",
          "name": "_asdToken",
          "type": "address"
        }
      ],
      "name": "sClaim",
      "outputs": [],
      "stateMutability": "nonpayable",
      "type": "function"
    },
    {
      "inputs": [
        {
          "internalType": "address",
          "name": "_userAccount",
          "type": "address"
        },
        {
          "internalType": "address",
          "name": "_factoryAddress",
          "type": "address"
        },
        {
          "internalType": "address",
          "name": "_differToken",
          "type": "address"
        },
        {
          "internalType": "uint256",
          "name": "_differAmount",
          "type": "uint256"
        }
      ],
      "name": "sDeposit",
      "outputs": [],
      "stateMutability": "nonpayable",
      "type": "function"
    },
    {
      "inputs": [
        {
          "internalType": "address",
          "name": "_userAccount",
          "type": "address"
        },
        {
          "internalType": "address",
          "name": "_factoryAddress",
          "type": "address"
        },
        {
          "internalType": "address",
          "name": "_differToken",
          "type": "address"
        },
        {
          "internalType": "uint256",
          "name": "_differAmount",
          "type": "uint256"
        }
      ],
      "name": "withDrawOneToken",
      "outputs": [],
      "stateMutability": "nonpayable",
      "type": "function"
    }
  ],
  "bytecode": "0x60806040526005600055607860015561012c60025562278d00600355600354600261002a919061008a565b600455600354600361003c919061008a565b60055534801561004b57600080fd5b506100e4565b6000819050919050565b7f4e487b7100000000000000000000000000000000000000000000000000000000600052601160045260246000fd5b600061009582610051565b91506100a083610051565b9250817fffffffffffffffffffffffffffffffffffffffffffffffffffffffffffffffff04831182151516156100d9576100d861005b565b5b828202905092915050565b610ca1806100f36000396000f3fe608060405234801561001057600080fd5b506004361061007d5760003560e01c8063853b64c61161005b578063853b64c6146100ec57806393423e9c14610108578063990c8f7914610138578063b90cdbb5146101565761007d565b806302933b44146100825780633416a4ee1461009e57806363445989146100ba575b600080fd5b61009c600480360381019061009791906108cf565b610172565b005b6100b860048036038101906100b39190610958565b610383565b005b6100d460048036038101906100cf91906109bf565b610583565b6040516100e393929190610a0a565b60405180910390f35b610106600480360381019061010191906109bf565b6105cd565b005b610122600480360381019061011d91906109bf565b6106d5565b60405161012f9190610a41565b60405180910390f35b61014061072a565b60405161014d9190610a41565b60405180910390f35b610170600480360381019061016b9190610958565b610734565b005b6000600860008573ffffffffffffffffffffffffffffffffffffffff1673ffffffffffffffffffffffffffffffffffffffff1681526020019081526020016000206001015490506000600a826101c89190610aba565b90506000600860008773ffffffffffffffffffffffffffffffffffffffff1673ffffffffffffffffffffffffffffffffffffffff1681526020019081526020016000206002015490506000548161021f9190610aeb565b421015801561023a5750600154816102379190610aeb565b42105b156102d4578373ffffffffffffffffffffffffffffffffffffffff166323b872dd8688856040518463ffffffff1660e01b815260040161027c93929190610b41565b602060405180830381600087803b15801561029657600080fd5b505af11580156102aa573d6000803e3d6000fd5b505050506040513d601f19601f820116820180604052508101906102ce9190610bb0565b5061037b565b600154421061037a578373ffffffffffffffffffffffffffffffffffffffff166323b872dd86888560026103089190610bdd565b6040518463ffffffff1660e01b815260040161032693929190610b41565b602060405180830381600087803b15801561034057600080fd5b505af1158015610354573d6000803e3d6000fd5b505050506040513d601f19601f820116820180604052508101906103789190610bb0565b505b5b505050505050565b81600860008673ffffffffffffffffffffffffffffffffffffffff1673ffffffffffffffffffffffffffffffffffffffff16815260200190815260200160002060000160006101000a81548173ffffffffffffffffffffffffffffffffffffffff021916908373ffffffffffffffffffffffffffffffffffffffff16021790555080600860008673ffffffffffffffffffffffffffffffffffffffff1673ffffffffffffffffffffffffffffffffffffffff16815260200190815260200160002060010160008282546104569190610aeb565b9250508190555042600860008673ffffffffffffffffffffffffffffffffffffffff1673ffffffffffffffffffffffffffffffffffffffff16815260200190815260200160002060020181905550600860008573ffffffffffffffffffffffffffffffffffffffff1673ffffffffffffffffffffffffffffffffffffffff168152602001908152602001600020600101546006819055508173ffffffffffffffffffffffffffffffffffffffff166323b872dd8585846040518463ffffffff1660e01b815260040161052a93929190610b41565b602060405180830381600087803b15801561054457600080fd5b505af1158015610558573d6000803e3d6000fd5b505050506040513d601f19601f8201168201806040525081019061057c9190610bb0565b5050505050565b60086020528060005260406000206000915090508060000160009054906101000a900473ffffffffffffffffffffffffffffffffffffffff16908060010154908060020154905083565b6000600860008373ffffffffffffffffffffffffffffffffffffffff1673ffffffffffffffffffffffffffffffffffffffff1681526020019081526020016000206001015490506000600a826106239190610aba565b90506000600860008573ffffffffffffffffffffffffffffffffffffffff1673ffffffffffffffffffffffffffffffffffffffff1681526020019081526020016000206002015490506000548161067a9190610aeb565b42101580156106955750600154816106929190610aeb565b42105b156106a657816007819055506106cf565b600154816106b49190610aeb565b42106106ce578160026106c79190610bdd565b6007819055505b5b50505050565b6000600860008373ffffffffffffffffffffffffffffffffffffffff1673ffffffffffffffffffffffffffffffffffffffff168152602001908152602001600020600101546006819055506006549050919050565b6000600754905090565b80600860008673ffffffffffffffffffffffffffffffffffffffff1673ffffffffffffffffffffffffffffffffffffffff16815260200190815260200160002060010160008282546107869190610c37565b92505081905550600860008573ffffffffffffffffffffffffffffffffffffffff1673ffffffffffffffffffffffffffffffffffffffff168152602001908152602001600020600101546006819055508173ffffffffffffffffffffffffffffffffffffffff166323b872dd8486846040518463ffffffff1660e01b815260040161081393929190610b41565b602060405180830381600087803b15801561082d57600080fd5b505af1158015610841573d6000803e3d6000fd5b505050506040513d601f19601f820116820180604052508101906108659190610bb0565b5050505050565b600080fd5b600073ffffffffffffffffffffffffffffffffffffffff82169050919050565b600061089c82610871565b9050919050565b6108ac81610891565b81146108b757600080fd5b50565b6000813590506108c9816108a3565b92915050565b6000806000606084860312156108e8576108e761086c565b5b60006108f6868287016108ba565b9350506020610907868287016108ba565b9250506040610918868287016108ba565b9150509250925092565b6000819050919050565b61093581610922565b811461094057600080fd5b50565b6000813590506109528161092c565b92915050565b600080600080608085870312156109725761097161086c565b5b6000610980878288016108ba565b9450506020610991878288016108ba565b93505060406109a2878288016108ba565b92505060606109b387828801610943565b91505092959194509250565b6000602082840312156109d5576109d461086c565b5b60006109e3848285016108ba565b91505092915050565b6109f581610891565b82525050565b610a0481610922565b82525050565b6000606082019050610a1f60008301866109ec565b610a2c60208301856109fb565b610a3960408301846109fb565b949350505050565b6000602082019050610a5660008301846109fb565b92915050565b7f4e487b7100000000000000000000000000000000000000000000000000000000600052601260045260246000fd5b7f4e487b7100000000000000000000000000000000000000000000000000000000600052601160045260246000fd5b6000610ac582610922565b9150610ad083610922565b925082610ae057610adf610a5c565b5b828204905092915050565b6000610af682610922565b9150610b0183610922565b9250827fffffffffffffffffffffffffffffffffffffffffffffffffffffffffffffffff03821115610b3657610b35610a8b565b5b828201905092915050565b6000606082019050610b5660008301866109ec565b610b6360208301856109ec565b610b7060408301846109fb565b949350505050565b60008115159050919050565b610b8d81610b78565b8114610b9857600080fd5b50565b600081519050610baa81610b84565b92915050565b600060208284031215610bc657610bc561086c565b5b6000610bd484828501610b9b565b91505092915050565b6000610be882610922565b9150610bf383610922565b9250817fffffffffffffffffffffffffffffffffffffffffffffffffffffffffffffffff0483118215151615610c2c57610c2b610a8b565b5b828202905092915050565b6000610c4282610922565b9150610c4d83610922565b925082821015610c6057610c5f610a8b565b5b82820390509291505056fea26469706673582212202f4b68439bf980b32dbd5d8a456a6642ff8e91650786194e031d38d5ad2336df64736f6c63430008090033",
  "linkReferences": {},
  "deployedLinkReferences": {}
}