{
  "_format": "hh-sol-artifact-1",
  "contractName": "Staking",
  "sourceName": "contracts/Staking.sol",
  "abi": [
    {
      "inputs": [],
      "stateMutability": "nonpayable",
      "type": "constructor"
    },
    {
      "inputs": [
        {
          "internalType": "address",
          "name": "_differLptoken",
          "type": "address"
        },
        {
          "internalType": "address",
          "name": "_userAccount",
          "type": "address"
        },
        {
          "internalType": "address",
          "name": "_factoryAddress",
          "type": "address"
        },
        {
          "internalType": "uint256",
          "name": "_amount",
          "type": "uint256"
        },
        {
          "internalType": "uint256",
          "name": "_month",
          "type": "uint256"
        },
        {
          "internalType": "address",
          "name": "_VASDtokenAddress",
          "type": "address"
        }
      ],
      "name": "StakeDifferLp",
      "outputs": [],
      "stateMutability": "nonpayable",
      "type": "function"
    },
    {
      "inputs": [],
      "name": "getValue1",
      "outputs": [
        {
          "internalType": "uint256",
          "name": "_firstNum",
          "type": "uint256"
        },
        {
          "internalType": "uint256",
          "name": "_secondNum",
          "type": "uint256"
        },
        {
          "internalType": "address",
          "name": "_firstTokenName",
          "type": "address"
        },
        {
          "internalType": "uint256",
          "name": "_firstTokenMon",
          "type": "uint256"
        },
        {
          "internalType": "uint256",
          "name": "_firstAmount",
          "type": "uint256"
        },
        {
          "internalType": "uint256",
          "name": "_secondAmount",
          "type": "uint256"
        }
      ],
      "stateMutability": "view",
      "type": "function"
    },
    {
      "inputs": [],
      "name": "getValue2",
      "outputs": [
        {
          "internalType": "bool",
          "name": "",
          "type": "bool"
        }
      ],
      "stateMutability": "view",
      "type": "function"
    },
    {
      "inputs": [
        {
          "internalType": "address",
          "name": "",
          "type": "address"
        },
        {
          "internalType": "address",
          "name": "",
          "type": "address"
        },
        {
          "internalType": "uint256",
          "name": "",
          "type": "uint256"
        }
      ],
      "name": "stakeInfo",
      "outputs": [
        {
          "internalType": "uint256",
          "name": "amount",
          "type": "uint256"
        },
        {
          "internalType": "uint256",
          "name": "stakedTime",
          "type": "uint256"
        },
        {
          "internalType": "bool",
          "name": "isWithdrawable",
          "type": "bool"
        },
        {
          "internalType": "address",
          "name": "Lpaddress",
          "type": "address"
        }
      ],
      "stateMutability": "view",
      "type": "function"
    },
    {
      "inputs": [
        {
          "internalType": "address",
          "name": "",
          "type": "address"
        },
        {
          "internalType": "address",
          "name": "",
          "type": "address"
        }
      ],
      "name": "stakeMonth",
      "outputs": [
        {
          "internalType": "uint256",
          "name": "",
          "type": "uint256"
        }
      ],
      "stateMutability": "view",
      "type": "function"
    },
    {
      "inputs": [
        {
          "internalType": "address",
          "name": "",
          "type": "address"
        },
        {
          "internalType": "uint256",
          "name": "",
          "type": "uint256"
        }
      ],
      "name": "stakeTokenName",
      "outputs": [
        {
          "internalType": "address",
          "name": "",
          "type": "address"
        }
      ],
      "stateMutability": "view",
      "type": "function"
    },
    {
      "inputs": [
        {
          "internalType": "address",
          "name": "",
          "type": "address"
        }
      ],
      "name": "userLenth",
      "outputs": [
        {
          "internalType": "uint256",
          "name": "",
          "type": "uint256"
        }
      ],
      "stateMutability": "view",
      "type": "function"
    },
    {
      "inputs": [
        {
          "internalType": "address",
          "name": "_userAccount",
          "type": "address"
        },
        {
          "internalType": "address",
          "name": "_differLp",
          "type": "address"
        }
      ],
      "name": "withDrawBool",
      "outputs": [
        {
          "internalType": "address[]",
          "name": "tkname",
          "type": "address[]"
        },
        {
          "internalType": "uint256[]",
          "name": "tkValue",
          "type": "uint256[]"
        }
      ],
      "stateMutability": "nonpayable",
      "type": "function"
    },
    {
      "inputs": [
        {
          "internalType": "address",
          "name": "_userAccount",
          "type": "address"
        },
        {
          "internalType": "address",
          "name": "_factoryAddress",
          "type": "address"
        },
        {
          "internalType": "address",
          "name": "_differLp",
          "type": "address"
        },
        {
          "internalType": "uint256",
          "name": "_amount",
          "type": "uint256"
        }
      ],
      "name": "withDrawDifferLp",
      "outputs": [],
      "stateMutability": "nonpayable",
      "type": "function"
    }
  ],
  "bytecode": "0x6080604052629e340060035563013c68006004556301da9c00600555601460065534801561002c57600080fd5b5030600160006101000a81548173ffffffffffffffffffffffffffffffffffffffff021916908373ffffffffffffffffffffffffffffffffffffffff1602179055506130038061007d6000396000f3fe608060405234801561001057600080fd5b50600436106100935760003560e01c80639020783311610066578063902078331461014e578063a6c46bc21461017f578063a7f8cd091461019b578063b7c1bcb2146101b7578063c515205d146101e757610093565b806322f06ac114610098578063513bc1ce146100cb57806360d586f8146100fb5780638274fa2a1461011e575b600080fd5b6100b260048036038101906100ad919061272c565b610205565b6040516100c294939291906127b8565b60405180910390f35b6100e560048036038101906100e091906127fd565b61027c565b6040516100f2919061282a565b60405180910390f35b610103610294565b60405161011596959493929190612845565b60405180910390f35b610138600480360381019061013391906128a6565b6102e3565b60405161014591906128e6565b60405180910390f35b61016860048036038101906101639190612901565b610325565b604051610176929190612abd565b60405180910390f35b61019960048036038101906101949190612af4565b610b5c565b005b6101b560048036038101906101b09190612b5b565b6113b9565b005b6101d160048036038101906101cc9190612901565b611f1c565b6040516101de919061282a565b60405180910390f35b6101ef611f41565b6040516101fc9190612be8565b60405180910390f35b600b60205282600052604060002060205281600052604060002060205280600052604060002060009250925050508060000154908060010154908060020160009054906101000a900460ff16908060020160019054906101000a900473ffffffffffffffffffffffffffffffffffffffff16905084565b600e6020528060005260406000206000915090505481565b600080600080600080600f54601054601160009054906101000a900473ffffffffffffffffffffffffffffffffffffffff16601254601354601454955095509550955095509550909192939495565b600d6020528160005260406000206020528060005260406000206000915091509054906101000a900473ffffffffffffffffffffffffffffffffffffffff1681565b6060806001600e60008673ffffffffffffffffffffffffffffffffffffffff1673ffffffffffffffffffffffffffffffffffffffff168152602001908152602001600020546103749190612c32565b60108190555060005b6010548111610a7257600d60008673ffffffffffffffffffffffffffffffffffffffff1673ffffffffffffffffffffffffffffffffffffffff168152602001908152602001600020600082815260200190815260200160002060009054906101000a900473ffffffffffffffffffffffffffffffffffffffff16601560006101000a81548173ffffffffffffffffffffffffffffffffffffffff021916908373ffffffffffffffffffffffffffffffffffffffff1602179055508373ffffffffffffffffffffffffffffffffffffffff16601560009054906101000a900473ffffffffffffffffffffffffffffffffffffffff1673ffffffffffffffffffffffffffffffffffffffff161415610a5f57600c60008673ffffffffffffffffffffffffffffffffffffffff1673ffffffffffffffffffffffffffffffffffffffff1681526020019081526020016000206000601560009054906101000a900473ffffffffffffffffffffffffffffffffffffffff1673ffffffffffffffffffffffffffffffffffffffff1673ffffffffffffffffffffffffffffffffffffffff168152602001908152602001600020546016819055506004601654141561062057600654600b60008773ffffffffffffffffffffffffffffffffffffffff1673ffffffffffffffffffffffffffffffffffffffff1681526020019081526020016000206000601560009054906101000a900473ffffffffffffffffffffffffffffffffffffffff1673ffffffffffffffffffffffffffffffffffffffff1673ffffffffffffffffffffffffffffffffffffffff16815260200190815260200160002060006016548152602001908152602001600020600101546105ff9190612c66565b421015600760006101000a81548160ff0219169083151502179055506107fa565b6008601654141561070e57600654600b60008773ffffffffffffffffffffffffffffffffffffffff1673ffffffffffffffffffffffffffffffffffffffff1681526020019081526020016000206000601560009054906101000a900473ffffffffffffffffffffffffffffffffffffffff1673ffffffffffffffffffffffffffffffffffffffff1673ffffffffffffffffffffffffffffffffffffffff16815260200190815260200160002060006016548152602001908152602001600020600101546106ed9190612c66565b421015600760006101000a81548160ff0219169083151502179055506107f9565b600c60165414156107f857600654600b60008773ffffffffffffffffffffffffffffffffffffffff1673ffffffffffffffffffffffffffffffffffffffff1681526020019081526020016000206000601560009054906101000a900473ffffffffffffffffffffffffffffffffffffffff1673ffffffffffffffffffffffffffffffffffffffff1673ffffffffffffffffffffffffffffffffffffffff16815260200190815260200160002060006016548152602001908152602001600020600101546107db9190612c66565b421015600760006101000a81548160ff0219169083151502179055505b5b5b600760009054906101000a900460ff1615610a5e576001600b60008773ffffffffffffffffffffffffffffffffffffffff1673ffffffffffffffffffffffffffffffffffffffff1681526020019081526020016000206000601560009054906101000a900473ffffffffffffffffffffffffffffffffffffffff1673ffffffffffffffffffffffffffffffffffffffff1673ffffffffffffffffffffffffffffffffffffffff1681526020019081526020016000206000601654815260200190815260200160002060020160006101000a81548160ff0219169083151502179055506008601560009054906101000a900473ffffffffffffffffffffffffffffffffffffffff169080600181540180825580915050600190039060005260206000200160009091909190916101000a81548173ffffffffffffffffffffffffffffffffffffffff021916908373ffffffffffffffffffffffffffffffffffffffff1602179055506000600b60008773ffffffffffffffffffffffffffffffffffffffff1673ffffffffffffffffffffffffffffffffffffffff1681526020019081526020016000206000601560009054906101000a900473ffffffffffffffffffffffffffffffffffffffff1673ffffffffffffffffffffffffffffffffffffffff1673ffffffffffffffffffffffffffffffffffffffff1681526020019081526020016000206000601654815260200190815260200160002060000154905060098190806001815401808255809150506001900390600052602060002001600090919091909150558060146000828254610a559190612c66565b92505081905550505b5b8080610a6a90612cbc565b91505061037d565b506008600981805480602002602001604051908101604052809291908181526020018280548015610af857602002820191906000526020600020905b8160009054906101000a900473ffffffffffffffffffffffffffffffffffffffff1673ffffffffffffffffffffffffffffffffffffffff1681526020019060010190808311610aae575b5050505050915080805480602002602001604051908101604052809291908181526020018280548015610b4a57602002820191906000526020600020905b815481526020019060010190808311610b36575b50505050509050915091509250929050565b6001600e60008673ffffffffffffffffffffffffffffffffffffffff1673ffffffffffffffffffffffffffffffffffffffff16815260200190815260200160002054610ba89190612c32565b600f8190555060005b600f5481116113b257600d60008673ffffffffffffffffffffffffffffffffffffffff1673ffffffffffffffffffffffffffffffffffffffff168152602001908152602001600020600082815260200190815260200160002060009054906101000a900473ffffffffffffffffffffffffffffffffffffffff16601160006101000a81548173ffffffffffffffffffffffffffffffffffffffff021916908373ffffffffffffffffffffffffffffffffffffffff1602179055508273ffffffffffffffffffffffffffffffffffffffff16601160009054906101000a900473ffffffffffffffffffffffffffffffffffffffff1673ffffffffffffffffffffffffffffffffffffffff16141561139f57600c60008673ffffffffffffffffffffffffffffffffffffffff1673ffffffffffffffffffffffffffffffffffffffff1681526020019081526020016000206000601160009054906101000a900473ffffffffffffffffffffffffffffffffffffffff1673ffffffffffffffffffffffffffffffffffffffff1673ffffffffffffffffffffffffffffffffffffffff16815260200190815260200160002054601281905550600b60008673ffffffffffffffffffffffffffffffffffffffff1673ffffffffffffffffffffffffffffffffffffffff1681526020019081526020016000206000601160009054906101000a900473ffffffffffffffffffffffffffffffffffffffff1673ffffffffffffffffffffffffffffffffffffffff1673ffffffffffffffffffffffffffffffffffffffff1681526020019081526020016000206000601254815260200190815260200160002060000154601381905550610e2b8584610325565b5050600b60008673ffffffffffffffffffffffffffffffffffffffff1673ffffffffffffffffffffffffffffffffffffffff1681526020019081526020016000206000601160009054906101000a900473ffffffffffffffffffffffffffffffffffffffff1673ffffffffffffffffffffffffffffffffffffffff1673ffffffffffffffffffffffffffffffffffffffff1681526020019081526020016000206000601254815260200190815260200160002060020160009054906101000a900460ff16600a60006101000a81548160ff021916908315150217905550600a60009054906101000a900460ff16610f57576040517f08c379a0000000000000000000000000000000000000000000000000000000008152600401610f4e90612d62565b60405180910390fd5b600a60009054906101000a900460ff161561139e578160135411156111a857601160009054906101000a900473ffffffffffffffffffffffffffffffffffffffff1673ffffffffffffffffffffffffffffffffffffffff1663095ea7b385846040518363ffffffff1660e01b8152600401610fd3929190612d82565b602060405180830381600087803b158015610fed57600080fd5b505af1158015611001573d6000803e3d6000fd5b505050506040513d601f19601f820116820180604052508101906110259190612dd7565b50601160009054906101000a900473ffffffffffffffffffffffffffffffffffffffff1673ffffffffffffffffffffffffffffffffffffffff166323b872dd8587856040518463ffffffff1660e01b815260040161108593929190612e04565b602060405180830381600087803b15801561109f57600080fd5b505af11580156110b3573d6000803e3d6000fd5b505050506040513d601f19601f820116820180604052508101906110d79190612dd7565b5081600b60008773ffffffffffffffffffffffffffffffffffffffff1673ffffffffffffffffffffffffffffffffffffffff1681526020019081526020016000206000601160009054906101000a900473ffffffffffffffffffffffffffffffffffffffff1673ffffffffffffffffffffffffffffffffffffffff1673ffffffffffffffffffffffffffffffffffffffff16815260200190815260200160002060006012548152602001908152602001600020600001600082825461119c9190612c32565b9250508190555061139d565b81601354141561134c57601160009054906101000a900473ffffffffffffffffffffffffffffffffffffffff1673ffffffffffffffffffffffffffffffffffffffff1663095ea7b3856013546040518363ffffffff1660e01b8152600401611211929190612d82565b602060405180830381600087803b15801561122b57600080fd5b505af115801561123f573d6000803e3d6000fd5b505050506040513d601f19601f820116820180604052508101906112639190612dd7565b50601160009054906101000a900473ffffffffffffffffffffffffffffffffffffffff1673ffffffffffffffffffffffffffffffffffffffff166323b872dd85876013546040518463ffffffff1660e01b81526004016112c593929190612e04565b602060405180830381600087803b1580156112df57600080fd5b505af11580156112f3573d6000803e3d6000fd5b505050506040513d601f19601f820116820180604052508101906113179190612dd7565b5061134785601160009054906101000a900473ffffffffffffffffffffffffffffffffffffffff16601254611f58565b61139c565b81601354101561139b57816013541161139a576040517f08c379a000000000000000000000000000000000000000000000000000000000815260040161139190612e87565b60405180910390fd5b5b5b5b5b5b80806113aa90612cbc565b915050610bb1565b5050505050565b806000806101000a81548173ffffffffffffffffffffffffffffffffffffffff021916908373ffffffffffffffffffffffffffffffffffffffff16021790555060008054906101000a900473ffffffffffffffffffffffffffffffffffffffff16600260006101000a81548173ffffffffffffffffffffffffffffffffffffffff021916908373ffffffffffffffffffffffffffffffffffffffff1602179055506000600e60008773ffffffffffffffffffffffffffffffffffffffff1673ffffffffffffffffffffffffffffffffffffffff16815260200190815260200160002054905086600d60008873ffffffffffffffffffffffffffffffffffffffff1673ffffffffffffffffffffffffffffffffffffffff168152602001908152602001600020600083815260200190815260200160002060006101000a81548173ffffffffffffffffffffffffffffffffffffffff021916908373ffffffffffffffffffffffffffffffffffffffff1602179055506001600e60008873ffffffffffffffffffffffffffffffffffffffff1673ffffffffffffffffffffffffffffffffffffffff168152602001908152602001600020600082825461157d9190612c66565b925050819055506000600c60008873ffffffffffffffffffffffffffffffffffffffff1673ffffffffffffffffffffffffffffffffffffffff16815260200190815260200160002060008973ffffffffffffffffffffffffffffffffffffffff1673ffffffffffffffffffffffffffffffffffffffff16815260200190815260200160002054141561169c576116168787878787612132565b82600c60008873ffffffffffffffffffffffffffffffffffffffff1673ffffffffffffffffffffffffffffffffffffffff16815260200190815260200160002060008973ffffffffffffffffffffffffffffffffffffffff1673ffffffffffffffffffffffffffffffffffffffff16815260200190815260200160002081905550611f13565b82600c60008873ffffffffffffffffffffffffffffffffffffffff1673ffffffffffffffffffffffffffffffffffffffff16815260200190815260200160002060008973ffffffffffffffffffffffffffffffffffffffff1673ffffffffffffffffffffffffffffffffffffffff168152602001908152602001600020541015611963576000600c60008873ffffffffffffffffffffffffffffffffffffffff1673ffffffffffffffffffffffffffffffffffffffff16815260200190815260200160002060008973ffffffffffffffffffffffffffffffffffffffff1673ffffffffffffffffffffffffffffffffffffffff1681526020019081526020016000205490506000600b60008973ffffffffffffffffffffffffffffffffffffffff1673ffffffffffffffffffffffffffffffffffffffff16815260200190815260200160002060008a73ffffffffffffffffffffffffffffffffffffffff1673ffffffffffffffffffffffffffffffffffffffff1681526020019081526020016000206000600c60008b73ffffffffffffffffffffffffffffffffffffffff1673ffffffffffffffffffffffffffffffffffffffff16815260200190815260200160002060008c73ffffffffffffffffffffffffffffffffffffffff1673ffffffffffffffffffffffffffffffffffffffff168152602001908152602001600020548152602001908152602001600020600001549050600081876118c09190612c66565b90506118cf8a8a8a848a612132565b6118da898b85611f58565b85600c60008b73ffffffffffffffffffffffffffffffffffffffff1673ffffffffffffffffffffffffffffffffffffffff16815260200190815260200160002060008c73ffffffffffffffffffffffffffffffffffffffff1673ffffffffffffffffffffffffffffffffffffffff16815260200190815260200160002081905550505050611f12565b82600c60008873ffffffffffffffffffffffffffffffffffffffff1673ffffffffffffffffffffffffffffffffffffffff16815260200190815260200160002060008973ffffffffffffffffffffffffffffffffffffffff1673ffffffffffffffffffffffffffffffffffffffff168152602001908152602001600020541115611c3e576000600c60008873ffffffffffffffffffffffffffffffffffffffff1673ffffffffffffffffffffffffffffffffffffffff16815260200190815260200160002060008973ffffffffffffffffffffffffffffffffffffffff1673ffffffffffffffffffffffffffffffffffffffff168152602001908152602001600020549050611a758888888888612132565b600b60008873ffffffffffffffffffffffffffffffffffffffff1673ffffffffffffffffffffffffffffffffffffffff16815260200190815260200160002060008973ffffffffffffffffffffffffffffffffffffffff1673ffffffffffffffffffffffffffffffffffffffff168152602001908152602001600020600085815260200190815260200160002060000154600b60008973ffffffffffffffffffffffffffffffffffffffff1673ffffffffffffffffffffffffffffffffffffffff16815260200190815260200160002060008a73ffffffffffffffffffffffffffffffffffffffff1673ffffffffffffffffffffffffffffffffffffffff16815260200190815260200160002060008381526020019081526020016000206000016000828254611ba59190612c66565b92505081905550611bb7878986611f58565b80600c60008973ffffffffffffffffffffffffffffffffffffffff1673ffffffffffffffffffffffffffffffffffffffff16815260200190815260200160002060008a73ffffffffffffffffffffffffffffffffffffffff1673ffffffffffffffffffffffffffffffffffffffff1681526020019081526020016000208190555050611f11565b82600c60008873ffffffffffffffffffffffffffffffffffffffff1673ffffffffffffffffffffffffffffffffffffffff16815260200190815260200160002060008973ffffffffffffffffffffffffffffffffffffffff1673ffffffffffffffffffffffffffffffffffffffff168152602001908152602001600020541415611f10576000600c60008873ffffffffffffffffffffffffffffffffffffffff1673ffffffffffffffffffffffffffffffffffffffff16815260200190815260200160002060008973ffffffffffffffffffffffffffffffffffffffff1673ffffffffffffffffffffffffffffffffffffffff1681526020019081526020016000205490506000600b60008973ffffffffffffffffffffffffffffffffffffffff1673ffffffffffffffffffffffffffffffffffffffff16815260200190815260200160002060008a73ffffffffffffffffffffffffffffffffffffffff1673ffffffffffffffffffffffffffffffffffffffff1681526020019081526020016000206000838152602001908152602001600020600001549050611de58989898989612132565b80600b60008a73ffffffffffffffffffffffffffffffffffffffff1673ffffffffffffffffffffffffffffffffffffffff16815260200190815260200160002060008b73ffffffffffffffffffffffffffffffffffffffff1673ffffffffffffffffffffffffffffffffffffffff16815260200190815260200160002060008781526020019081526020016000206000016000828254611e859190612c66565b9250508190555084600c60008a73ffffffffffffffffffffffffffffffffffffffff1673ffffffffffffffffffffffffffffffffffffffff16815260200190815260200160002060008b73ffffffffffffffffffffffffffffffffffffffff1673ffffffffffffffffffffffffffffffffffffffff1681526020019081526020016000208190555050505b5b5b5b50505050505050565b600c602052816000526040600020602052806000526040600020600091509150505481565b6000600760009054906101000a900460ff16905090565b6000600b60008573ffffffffffffffffffffffffffffffffffffffff1673ffffffffffffffffffffffffffffffffffffffff16815260200190815260200160002060008473ffffffffffffffffffffffffffffffffffffffff1673ffffffffffffffffffffffffffffffffffffffff1681526020019081526020016000206000838152602001908152602001600020600001819055506000600b60008573ffffffffffffffffffffffffffffffffffffffff1673ffffffffffffffffffffffffffffffffffffffff16815260200190815260200160002060008473ffffffffffffffffffffffffffffffffffffffff1673ffffffffffffffffffffffffffffffffffffffff1681526020019081526020016000206000838152602001908152602001600020600101819055506000600b60008573ffffffffffffffffffffffffffffffffffffffff1673ffffffffffffffffffffffffffffffffffffffff16815260200190815260200160002060008473ffffffffffffffffffffffffffffffffffffffff1673ffffffffffffffffffffffffffffffffffffffff168152602001908152602001600020600083815260200190815260200160002060020160006101000a81548160ff021916908315150217905550505050565b60048114156121575761214885858484876121fd565b6121528483612467565b6121f6565b60088114156121885761216d85858484876121fd565b6121838483600261217e9190612ea7565b612467565b6121f5565b600c8114156121b95761219e85858484876121fd565b6121b4848360046121af9190612ea7565b612467565b6121f4565b6040517f08c379a00000000000000000000000000000000000000000000000000000000081526004016121eb90612f4d565b60405180910390fd5b5b5b5050505050565b8473ffffffffffffffffffffffffffffffffffffffff166323b872dd8583866040518463ffffffff1660e01b815260040161223a93929190612e04565b602060405180830381600087803b15801561225457600080fd5b505af1158015612268573d6000803e3d6000fd5b505050506040513d601f19601f8201168201806040525081019061228c9190612dd7565b5082600b60008673ffffffffffffffffffffffffffffffffffffffff1673ffffffffffffffffffffffffffffffffffffffff16815260200190815260200160002060008773ffffffffffffffffffffffffffffffffffffffff1673ffffffffffffffffffffffffffffffffffffffff16815260200190815260200160002060008481526020019081526020016000206000018190555042600b60008673ffffffffffffffffffffffffffffffffffffffff1673ffffffffffffffffffffffffffffffffffffffff16815260200190815260200160002060008773ffffffffffffffffffffffffffffffffffffffff1673ffffffffffffffffffffffffffffffffffffffff1681526020019081526020016000206000848152602001908152602001600020600101819055506000600b60008673ffffffffffffffffffffffffffffffffffffffff1673ffffffffffffffffffffffffffffffffffffffff16815260200190815260200160002060008773ffffffffffffffffffffffffffffffffffffffff1673ffffffffffffffffffffffffffffffffffffffff168152602001908152602001600020600084815260200190815260200160002060020160006101000a81548160ff0219169083151502179055505050505050565b6000670de0b6b3a76400008261247d9190612f9c565b9050600260009054906101000a900473ffffffffffffffffffffffffffffffffffffffff1673ffffffffffffffffffffffffffffffffffffffff1663a0712d68826040518263ffffffff1660e01b81526004016124da919061282a565b600060405180830381600087803b1580156124f457600080fd5b505af1158015612508573d6000803e3d6000fd5b50505050600260009054906101000a900473ffffffffffffffffffffffffffffffffffffffff1673ffffffffffffffffffffffffffffffffffffffff1663095ea7b384836040518363ffffffff1660e01b8152600401612569929190612d82565b602060405180830381600087803b15801561258357600080fd5b505af1158015612597573d6000803e3d6000fd5b505050506040513d601f19601f820116820180604052508101906125bb9190612dd7565b50600260009054906101000a900473ffffffffffffffffffffffffffffffffffffffff1673ffffffffffffffffffffffffffffffffffffffff166323b872dd60008054906101000a900473ffffffffffffffffffffffffffffffffffffffff1685846040518463ffffffff1660e01b815260040161263b93929190612e04565b602060405180830381600087803b15801561265557600080fd5b505af1158015612669573d6000803e3d6000fd5b505050506040513d601f19601f8201168201806040525081019061268d9190612dd7565b50505050565b600080fd5b600073ffffffffffffffffffffffffffffffffffffffff82169050919050565b60006126c382612698565b9050919050565b6126d3816126b8565b81146126de57600080fd5b50565b6000813590506126f0816126ca565b92915050565b6000819050919050565b612709816126f6565b811461271457600080fd5b50565b60008135905061272681612700565b92915050565b60008060006060848603121561274557612744612693565b5b6000612753868287016126e1565b9350506020612764868287016126e1565b925050604061277586828701612717565b9150509250925092565b612788816126f6565b82525050565b60008115159050919050565b6127a38161278e565b82525050565b6127b2816126b8565b82525050565b60006080820190506127cd600083018761277f565b6127da602083018661277f565b6127e7604083018561279a565b6127f460608301846127a9565b95945050505050565b60006020828403121561281357612812612693565b5b6000612821848285016126e1565b91505092915050565b600060208201905061283f600083018461277f565b92915050565b600060c08201905061285a600083018961277f565b612867602083018861277f565b61287460408301876127a9565b612881606083018661277f565b61288e608083018561277f565b61289b60a083018461277f565b979650505050505050565b600080604083850312156128bd576128bc612693565b5b60006128cb858286016126e1565b92505060206128dc85828601612717565b9150509250929050565b60006020820190506128fb60008301846127a9565b92915050565b6000806040838503121561291857612917612693565b5b6000612926858286016126e1565b9250506020612937858286016126e1565b9150509250929050565b600081519050919050565b600082825260208201905092915050565b6000819050602082019050919050565b612976816126b8565b82525050565b6000612988838361296d565b60208301905092915050565b6000602082019050919050565b60006129ac82612941565b6129b6818561294c565b93506129c18361295d565b8060005b838110156129f25781516129d9888261297c565b97506129e483612994565b9250506001810190506129c5565b5085935050505092915050565b600081519050919050565b600082825260208201905092915050565b6000819050602082019050919050565b612a34816126f6565b82525050565b6000612a468383612a2b565b60208301905092915050565b6000602082019050919050565b6000612a6a826129ff565b612a748185612a0a565b9350612a7f83612a1b565b8060005b83811015612ab0578151612a978882612a3a565b9750612aa283612a52565b925050600181019050612a83565b5085935050505092915050565b60006040820190508181036000830152612ad781856129a1565b90508181036020830152612aeb8184612a5f565b90509392505050565b60008060008060808587031215612b0e57612b0d612693565b5b6000612b1c878288016126e1565b9450506020612b2d878288016126e1565b9350506040612b3e878288016126e1565b9250506060612b4f87828801612717565b91505092959194509250565b60008060008060008060c08789031215612b7857612b77612693565b5b6000612b8689828a016126e1565b9650506020612b9789828a016126e1565b9550506040612ba889828a016126e1565b9450506060612bb989828a01612717565b9350506080612bca89828a01612717565b92505060a0612bdb89828a016126e1565b9150509295509295509295565b6000602082019050612bfd600083018461279a565b92915050565b7f4e487b7100000000000000000000000000000000000000000000000000000000600052601160045260246000fd5b6000612c3d826126f6565b9150612c48836126f6565b925082821015612c5b57612c5a612c03565b5b828203905092915050565b6000612c71826126f6565b9150612c7c836126f6565b9250827fffffffffffffffffffffffffffffffffffffffffffffffffffffffffffffffff03821115612cb157612cb0612c03565b5b828201905092915050565b6000612cc7826126f6565b91507fffffffffffffffffffffffffffffffffffffffffffffffffffffffffffffffff821415612cfa57612cf9612c03565b5b600182019050919050565b600082825260208201905092915050565b7f636865636b20746865206d6f6e74680000000000000000000000000000000000600082015250565b6000612d4c600f83612d05565b9150612d5782612d16565b602082019050919050565b60006020820190508181036000830152612d7b81612d3f565b9050919050565b6000604082019050612d9760008301856127a9565b612da4602083018461277f565b9392505050565b612db48161278e565b8114612dbf57600080fd5b50565b600081519050612dd181612dab565b92915050565b600060208284031215612ded57612dec612693565b5b6000612dfb84828501612dc2565b91505092915050565b6000606082019050612e1960008301866127a9565b612e2660208301856127a9565b612e33604083018461277f565b949350505050565b7f636865636b2074686520616d6f756e7421212100000000000000000000000000600082015250565b6000612e71601383612d05565b9150612e7c82612e3b565b602082019050919050565b60006020820190508181036000830152612ea081612e64565b9050919050565b6000612eb2826126f6565b9150612ebd836126f6565b9250817fffffffffffffffffffffffffffffffffffffffffffffffffffffffffffffffff0483118215151615612ef657612ef5612c03565b5b828202905092915050565b7f77726f6e67206d6f6e7468000000000000000000000000000000000000000000600082015250565b6000612f37600b83612d05565b9150612f4282612f01565b602082019050919050565b60006020820190508181036000830152612f6681612f2a565b9050919050565b7f4e487b7100000000000000000000000000000000000000000000000000000000600052601260045260246000fd5b6000612fa7826126f6565b9150612fb2836126f6565b925082612fc257612fc1612f6d565b5b82820490509291505056fea26469706673582212206205e4b2cacf3f4f20c6676ccba1f2c2770cea5bd356900b276d0ffd022b22ab64736f6c63430008090033",
  "linkReferences": {},
  "deployedLinkReferences": {}
}